{
  "_format": "hh-sol-artifact-1",
  "contractName": "Tokenizer",
  "sourceName": "contracts/Tokenizer.sol",
  "abi": [
    {
      "inputs": [
        {
          "internalType": "address",
          "name": "_domaRecord",
          "type": "address"
        }
      ],
      "stateMutability": "nonpayable",
      "type": "constructor"
    },
    {
      "inputs": [
        {
          "components": [
            {
              "internalType": "string",
              "name": "sld",
              "type": "string"
            },
            {
              "internalType": "string",
              "name": "tld",
              "type": "string"
            }
          ],
          "internalType": "struct IDomaRecord.NameInfo[]",
          "name": "names",
          "type": "tuple[]"
        },
        {
          "internalType": "uint256",
          "name": "nonce",
          "type": "uint256"
        },
        {
          "internalType": "uint256",
          "name": "expiresAt",
          "type": "uint256"
        },
        {
          "internalType": "address",
          "name": "ownerAddress",
          "type": "address"
        }
      ],
      "name": "createVoucher",
      "outputs": [
        {
          "components": [
            {
              "components": [
                {
                  "internalType": "string",
                  "name": "sld",
                  "type": "string"
                },
                {
                  "internalType": "string",
                  "name": "tld",
                  "type": "string"
                }
              ],
              "internalType": "struct IDomaRecord.NameInfo[]",
              "name": "names",
              "type": "tuple[]"
            },
            {
              "internalType": "uint256",
              "name": "nonce",
              "type": "uint256"
            },
            {
              "internalType": "uint256",
              "name": "expiresAt",
              "type": "uint256"
            },
            {
              "internalType": "address",
              "name": "ownerAddress",
              "type": "address"
            }
          ],
          "internalType": "struct IProxyDomaRecord.TokenizationVoucher",
          "name": "voucher",
          "type": "tuple"
        }
      ],
      "stateMutability": "pure",
      "type": "function"
    },
    {
      "inputs": [],
      "name": "domaRecord",
      "outputs": [
        {
          "internalType": "contract IProxyDomaRecord",
          "name": "",
          "type": "address"
        }
      ],
      "stateMutability": "view",
      "type": "function"
    },
    {
      "inputs": [
        {
          "components": [
            {
              "components": [
                {
                  "internalType": "string",
                  "name": "sld",
                  "type": "string"
                },
                {
                  "internalType": "string",
                  "name": "tld",
                  "type": "string"
                }
              ],
              "internalType": "struct IDomaRecord.NameInfo[]",
              "name": "names",
              "type": "tuple[]"
            },
            {
              "internalType": "uint256",
              "name": "nonce",
              "type": "uint256"
            },
            {
              "internalType": "uint256",
              "name": "expiresAt",
              "type": "uint256"
            },
            {
              "internalType": "address",
              "name": "ownerAddress",
              "type": "address"
            }
          ],
          "internalType": "struct IProxyDomaRecord.TokenizationVoucher",
          "name": "voucher",
          "type": "tuple"
        },
        {
          "internalType": "bytes",
          "name": "signature",
          "type": "bytes"
        }
      ],
      "name": "tokenize",
      "outputs": [],
      "stateMutability": "payable",
      "type": "function"
    },
    {
      "inputs": [
        {
          "internalType": "string",
          "name": "sld",
          "type": "string"
        },
        {
          "internalType": "string",
          "name": "tld",
          "type": "string"
        },
        {
          "internalType": "uint256",
          "name": "nonce",
          "type": "uint256"
        },
        {
          "internalType": "uint256",
          "name": "expiresAt",
          "type": "uint256"
        },
        {
          "internalType": "address",
          "name": "ownerAddress",
          "type": "address"
        },
        {
          "internalType": "bytes",
          "name": "signature",
          "type": "bytes"
        }
      ],
      "name": "tokenizeSingleDomain",
      "outputs": [],
      "stateMutability": "payable",
      "type": "function"
    }
  ],
  "bytecode": "0x608060405234801561001057600080fd5b50604051611245380380611245833981810160405281019061003291906100db565b806000806101000a81548173ffffffffffffffffffffffffffffffffffffffff021916908373ffffffffffffffffffffffffffffffffffffffff16021790555050610108565b600080fd5b600073ffffffffffffffffffffffffffffffffffffffff82169050919050565b60006100a88261007d565b9050919050565b6100b88161009d565b81146100c357600080fd5b50565b6000815190506100d5816100af565b92915050565b6000602082840312156100f1576100f0610078565b5b60006100ff848285016100c6565b91505092915050565b61112e806101176000396000f3fe60806040526004361061003f5760003560e01c80633dfc87661461004457806385c680fa1461006057806396e12c7c1461007c578063e87f3a88146100a7575b600080fd5b61005e600480360381019061005991906104d5565b6100e4565b005b61007a6004803603810190610075919061063b565b610179565b005b34801561008857600080fd5b50610091610366565b60405161009e9190610789565b60405180910390f35b3480156100b357600080fd5b506100ce60048036038101906100c991906107fa565b61038a565b6040516100db9190610a99565b60405180910390f35b60008054906101000a900473ffffffffffffffffffffffffffffffffffffffff1673ffffffffffffffffffffffffffffffffffffffff16638141f9ed348585856040518563ffffffff1660e01b815260040161014293929190610ddc565b6000604051808303818588803b15801561015b57600080fd5b505af115801561016f573d6000803e3d6000fd5b5050505050505050565b6000600167ffffffffffffffff81111561019657610195610e15565b5b6040519080825280602002602001820160405280156101cf57816020015b6101bc6103e0565b8152602001906001900390816101b45790505b50905060405180604001604052808b8b8080601f016020809104026020016040519081016040528093929190818152602001838380828437600081840152601f19601f82011690508083019250505050505050815260200189898080601f016020809104026020016040519081016040528093929190818152602001838380828437600081840152601f19601f820116905080830192505050505050508152508160008151811061028357610282610e44565b5b6020026020010181905250600060405180608001604052808381526020018881526020018781526020018673ffffffffffffffffffffffffffffffffffffffff16815250905060008054906101000a900473ffffffffffffffffffffffffffffffffffffffff1673ffffffffffffffffffffffffffffffffffffffff16638141f9ed348387876040518563ffffffff1660e01b815260040161032793929190610e73565b6000604051808303818588803b15801561034057600080fd5b505af1158015610354573d6000803e3d6000fd5b50505050505050505050505050505050565b60008054906101000a900473ffffffffffffffffffffffffffffffffffffffff1681565b6103926103fa565b60405180608001604052808787906103aa91906110e3565b81526020018581526020018481526020018373ffffffffffffffffffffffffffffffffffffffff16815250905095945050505050565b604051806040016040528060608152602001606081525090565b6040518060800160405280606081526020016000815260200160008152602001600073ffffffffffffffffffffffffffffffffffffffff1681525090565b6000604051905090565b600080fd5b600080fd5b600080fd5b6000608082840312156104675761046661044c565b5b81905092915050565b600080fd5b600080fd5b600080fd5b60008083601f84011261049557610494610470565b5b8235905067ffffffffffffffff8111156104b2576104b1610475565b5b6020830191508360018202830111156104ce576104cd61047a565b5b9250929050565b6000806000604084860312156104ee576104ed610442565b5b600084013567ffffffffffffffff81111561050c5761050b610447565b5b61051886828701610451565b935050602084013567ffffffffffffffff81111561053957610538610447565b5b6105458682870161047f565b92509250509250925092565b60008083601f84011261056757610566610470565b5b8235905067ffffffffffffffff81111561058457610583610475565b5b6020830191508360018202830111156105a05761059f61047a565b5b9250929050565b6000819050919050565b6105ba816105a7565b81146105c557600080fd5b50565b6000813590506105d7816105b1565b92915050565b600073ffffffffffffffffffffffffffffffffffffffff82169050919050565b6000610608826105dd565b9050919050565b610618816105fd565b811461062357600080fd5b50565b6000813590506106358161060f565b92915050565b600080600080600080600080600060c08a8c03121561065d5761065c610442565b5b60008a013567ffffffffffffffff81111561067b5761067a610447565b5b6106878c828d01610551565b995099505060208a013567ffffffffffffffff8111156106aa576106a9610447565b5b6106b68c828d01610551565b975097505060406106c98c828d016105c8565b95505060606106da8c828d016105c8565b94505060806106eb8c828d01610626565b93505060a08a013567ffffffffffffffff81111561070c5761070b610447565b5b6107188c828d0161047f565b92509250509295985092959850929598565b6000819050919050565b600061074f61074a610745846105dd565b61072a565b6105dd565b9050919050565b600061076182610734565b9050919050565b600061077382610756565b9050919050565b61078381610768565b82525050565b600060208201905061079e600083018461077a565b92915050565b60008083601f8401126107ba576107b9610470565b5b8235905067ffffffffffffffff8111156107d7576107d6610475565b5b6020830191508360208202830111156107f3576107f261047a565b5b9250929050565b60008060008060006080868803121561081657610815610442565b5b600086013567ffffffffffffffff81111561083457610833610447565b5b610840888289016107a4565b95509550506020610853888289016105c8565b9350506040610864888289016105c8565b925050606061087588828901610626565b9150509295509295909350565b600081519050919050565b600082825260208201905092915050565b6000819050602082019050919050565b600081519050919050565b600082825260208201905092915050565b60005b838110156108e85780820151818401526020810190506108cd565b60008484015250505050565b6000601f19601f8301169050919050565b6000610910826108ae565b61091a81856108b9565b935061092a8185602086016108ca565b610933816108f4565b840191505092915050565b6000604083016000830151848203600086015261095b8282610905565b915050602083015184820360208601526109758282610905565b9150508091505092915050565b600061098e838361093e565b905092915050565b6000602082019050919050565b60006109ae82610882565b6109b8818561088d565b9350836020820285016109ca8561089e565b8060005b85811015610a0657848403895281516109e78582610982565b94506109f283610996565b925060208a019950506001810190506109ce565b50829750879550505050505092915050565b610a21816105a7565b82525050565b610a30816105fd565b82525050565b60006080830160008301518482036000860152610a5382826109a3565b9150506020830151610a686020860182610a18565b506040830151610a7b6040860182610a18565b506060830151610a8e6060860182610a27565b508091505092915050565b60006020820190508181036000830152610ab38184610a36565b905092915050565b600080fd5b600080fd5b600080fd5b60008083356001602003843603038112610ae757610ae6610ac5565b5b83810192508235915060208301925067ffffffffffffffff821115610b0f57610b0e610abb565b5b602082023603831315610b2557610b24610ac0565b5b509250929050565b6000819050919050565b60008083356001602003843603038112610b5457610b53610ac5565b5b83810192508235915060208301925067ffffffffffffffff821115610b7c57610b7b610abb565b5b600182023603831315610b9257610b91610ac0565b5b509250929050565b82818337600083830152505050565b6000610bb583856108b9565b9350610bc2838584610b9a565b610bcb836108f4565b840190509392505050565b600060408301610be96000840184610b37565b8583036000870152610bfc838284610ba9565b92505050610c0d6020840184610b37565b8583036020870152610c20838284610ba9565b925050508091505092915050565b6000610c3a8383610bd6565b905092915050565b600082356001604003833603038112610c5e57610c5d610ac5565b5b82810191505092915050565b6000602082019050919050565b6000610c83838561088d565b935083602084028501610c9584610b2d565b8060005b87811015610cd9578484038952610cb08284610c42565b610cba8582610c2e565b9450610cc583610c6a565b925060208a01995050600181019050610c99565b50829750879450505050509392505050565b6000610cfa60208401846105c8565b905092915050565b6000610d116020840184610626565b905092915050565b600060808301610d2c6000840184610aca565b8583036000870152610d3f838284610c77565b92505050610d506020840184610ceb565b610d5d6020860182610a18565b50610d6b6040840184610ceb565b610d786040860182610a18565b50610d866060840184610d02565b610d936060860182610a27565b508091505092915050565b600082825260208201905092915050565b6000610dbb8385610d9e565b9350610dc8838584610b9a565b610dd1836108f4565b840190509392505050565b60006040820190508181036000830152610df68186610d19565b90508181036020830152610e0b818486610daf565b9050949350505050565b7f4e487b7100000000000000000000000000000000000000000000000000000000600052604160045260246000fd5b7f4e487b7100000000000000000000000000000000000000000000000000000000600052603260045260246000fd5b60006040820190508181036000830152610e8d8186610a36565b90508181036020830152610ea2818486610daf565b9050949350505050565b610eb5826108f4565b810181811067ffffffffffffffff82111715610ed457610ed3610e15565b5b80604052505050565b6000610ee7610438565b9050610ef38282610eac565b919050565b600067ffffffffffffffff821115610f1357610f12610e15565b5b602082029050602081019050919050565b600080fd5b600080fd5b600080fd5b600067ffffffffffffffff821115610f4e57610f4d610e15565b5b610f57826108f4565b9050602081019050919050565b6000610f77610f7284610f33565b610edd565b905082815260208101848484011115610f9357610f92610f2e565b5b610f9e848285610b9a565b509392505050565b600082601f830112610fbb57610fba610470565b5b8135610fcb848260208601610f64565b91505092915050565b600060408284031215610fea57610fe9610f24565b5b610ff46040610edd565b9050600082013567ffffffffffffffff81111561101457611013610f29565b5b61102084828501610fa6565b600083015250602082013567ffffffffffffffff81111561104457611043610f29565b5b61105084828501610fa6565b60208301525092915050565b600061106f61106a84610ef8565b610edd565b905080838252602082019050602084028301858111156110925761109161047a565b5b835b818110156110d957803567ffffffffffffffff8111156110b7576110b6610470565b5b8086016110c48982610fd4565b85526020850194505050602081019050611094565b5050509392505050565b60006110f036848461105c565b90509291505056fea2646970667358221220c0ba6366009ccd0d3d7ae9910b22a59411b387fa377b372ff69d90c917b6853b64736f6c634300081c0033",
  "linkReferences": {},
  "deployedLinkReferences": {}
}