{"contracts/Tokenizer.sol":{"Tokenizer":{"abi":[{"inputs":[{"internalType":"address","name":"_domaRecord","type":"address"}],"stateMutability":"nonpayable","type":"constructor"},{"inputs":[{"components":[{"internalType":"string","name":"sld","type":"string"},{"internalType":"string","name":"tld","type":"string"}],"internalType":"struct IDomaRecord.NameInfo[]","name":"names","type":"tuple[]"},{"internalType":"uint256","name":"nonce","type":"uint256"},{"internalType":"uint256","name":"expiresAt","type":"uint256"},{"internalType":"address","name":"ownerAddress","type":"address"}],"name":"createVoucher","outputs":[{"components":[{"components":[{"internalType":"string","name":"sld","type":"string"},{"internalType":"string","name":"tld","type":"string"}],"internalType":"struct IDomaRecord.NameInfo[]","name":"names","type":"tuple[]"},{"internalType":"uint256","name":"nonce","type":"uint256"},{"internalType":"uint256","name":"expiresAt","type":"uint256"},{"internalType":"address","name":"ownerAddress","type":"address"}],"internalType":"struct IProxyDomaRecord.TokenizationVoucher","name":"voucher","type":"tuple"}],"stateMutability":"pure","type":"function"},{"inputs":[],"name":"domaRecord","outputs":[{"internalType":"contract IProxyDomaRecord","name":"","type":"address"}],"stateMutability":"view","type":"function"},{"inputs":[{"components":[{"components":[{"internalType":"string","name":"sld","type":"string"},{"internalType":"string","name":"tld","type":"string"}],"internalType":"struct IDomaRecord.NameInfo[]","name":"names","type":"tuple[]"},{"internalType":"uint256","name":"nonce","type":"uint256"},{"internalType":"uint256","name":"expiresAt","type":"uint256"},{"internalType":"address","name":"ownerAddress","type":"address"}],"internalType":"struct IProxyDomaRecord.TokenizationVoucher","name":"voucher","type":"tuple"},{"internalType":"bytes","name":"signature","type":"bytes"}],"name":"tokenize","outputs":[],"stateMutability":"payable","type":"function"},{"inputs":[{"internalType":"string","name":"sld","type":"string"},{"internalType":"string","name":"tld","type":"string"},{"internalType":"uint256","name":"nonce","type":"uint256"},{"internalType":"uint256","name":"expiresAt","type":"uint256"},{"internalType":"address","name":"ownerAddress","type":"address"},{"internalType":"bytes","name":"signature","type":"bytes"}],"name":"tokenizeSingleDomain","outputs":[],"stateMutability":"payable","type":"function"}],"evm":{"bytecode":{"linkReferences":{},"object":"608060405234801561001057600080fd5b50604051611245380380611245833981810160405281019061003291906100db565b806000806101000a81548173ffffffffffffffffffffffffffffffffffffffff021916908373ffffffffffffffffffffffffffffffffffffffff16021790555050610108565b600080fd5b600073ffffffffffffffffffffffffffffffffffffffff82169050919050565b60006100a88261007d565b9050919050565b6100b88161009d565b81146100c357600080fd5b50565b6000815190506100d5816100af565b92915050565b6000602082840312156100f1576100f0610078565b5b60006100ff848285016100c6565b91505092915050565b61112e806101176000396000f3fe60806040526004361061003f5760003560e01c80633dfc87661461004457806385c680fa1461006057806396e12c7c1461007c578063e87f3a88146100a7575b600080fd5b61005e600480360381019061005991906104d5565b6100e4565b005b61007a6004803603810190610075919061063b565b610179565b005b34801561008857600080fd5b50610091610366565b60405161009e9190610789565b60405180910390f35b3480156100b357600080fd5b506100ce60048036038101906100c991906107fa565b61038a565b6040516100db9190610a99565b60405180910390f35b60008054906101000a900473ffffffffffffffffffffffffffffffffffffffff1673ffffffffffffffffffffffffffffffffffffffff16638141f9ed348585856040518563ffffffff1660e01b815260040161014293929190610ddc565b6000604051808303818588803b15801561015b57600080fd5b505af115801561016f573d6000803e3d6000fd5b5050505050505050565b6000600167ffffffffffffffff81111561019657610195610e15565b5b6040519080825280602002602001820160405280156101cf57816020015b6101bc6103e0565b8152602001906001900390816101b45790505b50905060405180604001604052808b8b8080601f016020809104026020016040519081016040528093929190818152602001838380828437600081840152601f19601f82011690508083019250505050505050815260200189898080601f016020809104026020016040519081016040528093929190818152602001838380828437600081840152601f19601f820116905080830192505050505050508152508160008151811061028357610282610e44565b5b6020026020010181905250600060405180608001604052808381526020018881526020018781526020018673ffffffffffffffffffffffffffffffffffffffff16815250905060008054906101000a900473ffffffffffffffffffffffffffffffffffffffff1673ffffffffffffffffffffffffffffffffffffffff16638141f9ed348387876040518563ffffffff1660e01b815260040161032793929190610e73565b6000604051808303818588803b15801561034057600080fd5b505af1158015610354573d6000803e3d6000fd5b50505050505050505050505050505050565b60008054906101000a900473ffffffffffffffffffffffffffffffffffffffff1681565b6103926103fa565b60405180608001604052808787906103aa91906110e3565b81526020018581526020018481526020018373ffffffffffffffffffffffffffffffffffffffff16815250905095945050505050565b604051806040016040528060608152602001606081525090565b6040518060800160405280606081526020016000815260200160008152602001600073ffffffffffffffffffffffffffffffffffffffff1681525090565b6000604051905090565b600080fd5b600080fd5b600080fd5b6000608082840312156104675761046661044c565b5b81905092915050565b600080fd5b600080fd5b600080fd5b60008083601f84011261049557610494610470565b5b8235905067ffffffffffffffff8111156104b2576104b1610475565b5b6020830191508360018202830111156104ce576104cd61047a565b5b9250929050565b6000806000604084860312156104ee576104ed610442565b5b600084013567ffffffffffffffff81111561050c5761050b610447565b5b61051886828701610451565b935050602084013567ffffffffffffffff81111561053957610538610447565b5b6105458682870161047f565b92509250509250925092565b60008083601f84011261056757610566610470565b5b8235905067ffffffffffffffff81111561058457610583610475565b5b6020830191508360018202830111156105a05761059f61047a565b5b9250929050565b6000819050919050565b6105ba816105a7565b81146105c557600080fd5b50565b6000813590506105d7816105b1565b92915050565b600073ffffffffffffffffffffffffffffffffffffffff82169050919050565b6000610608826105dd565b9050919050565b610618816105fd565b811461062357600080fd5b50565b6000813590506106358161060f565b92915050565b600080600080600080600080600060c08a8c03121561065d5761065c610442565b5b60008a013567ffffffffffffffff81111561067b5761067a610447565b5b6106878c828d01610551565b995099505060208a013567ffffffffffffffff8111156106aa576106a9610447565b5b6106b68c828d01610551565b975097505060406106c98c828d016105c8565b95505060606106da8c828d016105c8565b94505060806106eb8c828d01610626565b93505060a08a013567ffffffffffffffff81111561070c5761070b610447565b5b6107188c828d0161047f565b92509250509295985092959850929598565b6000819050919050565b600061074f61074a610745846105dd565b61072a565b6105dd565b9050919050565b600061076182610734565b9050919050565b600061077382610756565b9050919050565b61078381610768565b82525050565b600060208201905061079e600083018461077a565b92915050565b60008083601f8401126107ba576107b9610470565b5b8235905067ffffffffffffffff8111156107d7576107d6610475565b5b6020830191508360208202830111156107f3576107f261047a565b5b9250929050565b60008060008060006080868803121561081657610815610442565b5b600086013567ffffffffffffffff81111561083457610833610447565b5b610840888289016107a4565b95509550506020610853888289016105c8565b9350506040610864888289016105c8565b925050606061087588828901610626565b9150509295509295909350565b600081519050919050565b600082825260208201905092915050565b6000819050602082019050919050565b600081519050919050565b600082825260208201905092915050565b60005b838110156108e85780820151818401526020810190506108cd565b60008484015250505050565b6000601f19601f8301169050919050565b6000610910826108ae565b61091a81856108b9565b935061092a8185602086016108ca565b610933816108f4565b840191505092915050565b6000604083016000830151848203600086015261095b8282610905565b915050602083015184820360208601526109758282610905565b9150508091505092915050565b600061098e838361093e565b905092915050565b6000602082019050919050565b60006109ae82610882565b6109b8818561088d565b9350836020820285016109ca8561089e565b8060005b85811015610a0657848403895281516109e78582610982565b94506109f283610996565b925060208a019950506001810190506109ce565b50829750879550505050505092915050565b610a21816105a7565b82525050565b610a30816105fd565b82525050565b60006080830160008301518482036000860152610a5382826109a3565b9150506020830151610a686020860182610a18565b506040830151610a7b6040860182610a18565b506060830151610a8e6060860182610a27565b508091505092915050565b60006020820190508181036000830152610ab38184610a36565b905092915050565b600080fd5b600080fd5b600080fd5b60008083356001602003843603038112610ae757610ae6610ac5565b5b83810192508235915060208301925067ffffffffffffffff821115610b0f57610b0e610abb565b5b602082023603831315610b2557610b24610ac0565b5b509250929050565b6000819050919050565b60008083356001602003843603038112610b5457610b53610ac5565b5b83810192508235915060208301925067ffffffffffffffff821115610b7c57610b7b610abb565b5b600182023603831315610b9257610b91610ac0565b5b509250929050565b82818337600083830152505050565b6000610bb583856108b9565b9350610bc2838584610b9a565b610bcb836108f4565b840190509392505050565b600060408301610be96000840184610b37565b8583036000870152610bfc838284610ba9565b92505050610c0d6020840184610b37565b8583036020870152610c20838284610ba9565b925050508091505092915050565b6000610c3a8383610bd6565b905092915050565b600082356001604003833603038112610c5e57610c5d610ac5565b5b82810191505092915050565b6000602082019050919050565b6000610c83838561088d565b935083602084028501610c9584610b2d565b8060005b87811015610cd9578484038952610cb08284610c42565b610cba8582610c2e565b9450610cc583610c6a565b925060208a01995050600181019050610c99565b50829750879450505050509392505050565b6000610cfa60208401846105c8565b905092915050565b6000610d116020840184610626565b905092915050565b600060808301610d2c6000840184610aca565b8583036000870152610d3f838284610c77565b92505050610d506020840184610ceb565b610d5d6020860182610a18565b50610d6b6040840184610ceb565b610d786040860182610a18565b50610d866060840184610d02565b610d936060860182610a27565b508091505092915050565b600082825260208201905092915050565b6000610dbb8385610d9e565b9350610dc8838584610b9a565b610dd1836108f4565b840190509392505050565b60006040820190508181036000830152610df68186610d19565b90508181036020830152610e0b818486610daf565b9050949350505050565b7f4e487b7100000000000000000000000000000000000000000000000000000000600052604160045260246000fd5b7f4e487b7100000000000000000000000000000000000000000000000000000000600052603260045260246000fd5b60006040820190508181036000830152610e8d8186610a36565b90508181036020830152610ea2818486610daf565b9050949350505050565b610eb5826108f4565b810181811067ffffffffffffffff82111715610ed457610ed3610e15565b5b80604052505050565b6000610ee7610438565b9050610ef38282610eac565b919050565b600067ffffffffffffffff821115610f1357610f12610e15565b5b602082029050602081019050919050565b600080fd5b600080fd5b600080fd5b600067ffffffffffffffff821115610f4e57610f4d610e15565b5b610f57826108f4565b9050602081019050919050565b6000610f77610f7284610f33565b610edd565b905082815260208101848484011115610f9357610f92610f2e565b5b610f9e848285610b9a565b509392505050565b600082601f830112610fbb57610fba610470565b5b8135610fcb848260208601610f64565b91505092915050565b600060408284031215610fea57610fe9610f24565b5b610ff46040610edd565b9050600082013567ffffffffffffffff81111561101457611013610f29565b5b61102084828501610fa6565b600083015250602082013567ffffffffffffffff81111561104457611043610f29565b5b61105084828501610fa6565b60208301525092915050565b600061106f61106a84610ef8565b610edd565b905080838252602082019050602084028301858111156110925761109161047a565b5b835b818110156110d957803567ffffffffffffffff8111156110b7576110b6610470565b5b8086016110c48982610fd4565b85526020850194505050602081019050611094565b5050509392505050565b60006110f036848461105c565b90509291505056fea2646970667358221220c0ba6366009ccd0d3d7ae9910b22a59411b387fa377b372ff69d90c917b6853b64736f6c634300081c0033","opcodes":"PUSH1 0x80 PUSH1 0x40 MSTORE CALLVALUE DUP1 ISZERO PUSH2 0x10 JUMPI PUSH1 0x0 DUP1 REVERT JUMPDEST POP PUSH1 0x40 MLOAD PUSH2 0x1245 CODESIZE SUB DUP1 PUSH2 0x1245 DUP4 CODECOPY DUP2 DUP2 ADD PUSH1 0x40 MSTORE DUP2 ADD SWAP1 PUSH2 0x32 SWAP2 SWAP1 PUSH2 0xDB JUMP JUMPDEST DUP1 PUSH1 0x0 DUP1 PUSH2 0x100 EXP DUP2 SLOAD DUP2 PUSH20 0xFFFFFFFFFFFFFFFFFFFFFFFFFFFFFFFFFFFFFFFF MUL NOT AND SWAP1 DUP4 PUSH20 0xFFFFFFFFFFFFFFFFFFFFFFFFFFFFFFFFFFFFFFFF AND MUL OR SWAP1 SSTORE POP POP PUSH2 0x108 JUMP JUMPDEST PUSH1 0x0 DUP1 REVERT JUMPDEST PUSH1 0x0 PUSH20 0xFFFFFFFFFFFFFFFFFFFFFFFFFFFFFFFFFFFFFFFF DUP3 AND SWAP1 POP SWAP2 SWAP1 POP JUMP JUMPDEST PUSH1 0x0 PUSH2 0xA8 DUP3 PUSH2 0x7D JUMP JUMPDEST SWAP1 POP SWAP2 SWAP1 POP JUMP JUMPDEST PUSH2 0xB8 DUP2 PUSH2 0x9D JUMP JUMPDEST DUP2 EQ PUSH2 0xC3 JUMPI PUSH1 0x0 DUP1 REVERT JUMPDEST POP JUMP JUMPDEST PUSH1 0x0 DUP2 MLOAD SWAP1 POP PUSH2 0xD5 DUP2 PUSH2 0xAF JUMP JUMPDEST SWAP3 SWAP2 POP POP JUMP JUMPDEST PUSH1 0x0 PUSH1 0x20 DUP3 DUP5 SUB SLT ISZERO PUSH2 0xF1 JUMPI PUSH2 0xF0 PUSH2 0x78 JUMP JUMPDEST JUMPDEST PUSH1 0x0 PUSH2 0xFF DUP5 DUP3 DUP6 ADD PUSH2 0xC6 JUMP JUMPDEST SWAP2 POP POP SWAP3 SWAP2 POP POP JUMP JUMPDEST PUSH2 0x112E DUP1 PUSH2 0x117 PUSH1 0x0 CODECOPY PUSH1 0x0 RETURN INVALID PUSH1 0x80 PUSH1 0x40 MSTORE PUSH1 0x4 CALLDATASIZE LT PUSH2 0x3F JUMPI PUSH1 0x0 CALLDATALOAD PUSH1 0xE0 SHR DUP1 PUSH4 0x3DFC8766 EQ PUSH2 0x44 JUMPI DUP1 PUSH4 0x85C680FA EQ PUSH2 0x60 JUMPI DUP1 PUSH4 0x96E12C7C EQ PUSH2 0x7C JUMPI DUP1 PUSH4 0xE87F3A88 EQ PUSH2 0xA7 JUMPI JUMPDEST PUSH1 0x0 DUP1 REVERT JUMPDEST PUSH2 0x5E PUSH1 0x4 DUP1 CALLDATASIZE SUB DUP2 ADD SWAP1 PUSH2 0x59 SWAP2 SWAP1 PUSH2 0x4D5 JUMP JUMPDEST PUSH2 0xE4 JUMP JUMPDEST STOP JUMPDEST PUSH2 0x7A PUSH1 0x4 DUP1 CALLDATASIZE SUB DUP2 ADD SWAP1 PUSH2 0x75 SWAP2 SWAP1 PUSH2 0x63B JUMP JUMPDEST PUSH2 0x179 JUMP JUMPDEST STOP JUMPDEST CALLVALUE DUP1 ISZERO PUSH2 0x88 JUMPI PUSH1 0x0 DUP1 REVERT JUMPDEST POP PUSH2 0x91 PUSH2 0x366 JUMP JUMPDEST PUSH1 0x40 MLOAD PUSH2 0x9E SWAP2 SWAP1 PUSH2 0x789 JUMP JUMPDEST PUSH1 0x40 MLOAD DUP1 SWAP2 SUB SWAP1 RETURN JUMPDEST CALLVALUE DUP1 ISZERO PUSH2 0xB3 JUMPI PUSH1 0x0 DUP1 REVERT JUMPDEST POP PUSH2 0xCE PUSH1 0x4 DUP1 CALLDATASIZE SUB DUP2 ADD SWAP1 PUSH2 0xC9 SWAP2 SWAP1 PUSH2 0x7FA JUMP JUMPDEST PUSH2 0x38A JUMP JUMPDEST PUSH1 0x40 MLOAD PUSH2 0xDB SWAP2 SWAP1 PUSH2 0xA99 JUMP JUMPDEST PUSH1 0x40 MLOAD DUP1 SWAP2 SUB SWAP1 RETURN JUMPDEST PUSH1 0x0 DUP1 SLOAD SWAP1 PUSH2 0x100 EXP SWAP1 DIV PUSH20 0xFFFFFFFFFFFFFFFFFFFFFFFFFFFFFFFFFFFFFFFF AND PUSH20 0xFFFFFFFFFFFFFFFFFFFFFFFFFFFFFFFFFFFFFFFF AND PUSH4 0x8141F9ED CALLVALUE DUP6 DUP6 DUP6 PUSH1 0x40 MLOAD DUP6 PUSH4 0xFFFFFFFF AND PUSH1 0xE0 SHL DUP2 MSTORE PUSH1 0x4 ADD PUSH2 0x142 SWAP4 SWAP3 SWAP2 SWAP1 PUSH2 0xDDC JUMP JUMPDEST PUSH1 0x0 PUSH1 0x40 MLOAD DUP1 DUP4 SUB DUP2 DUP6 DUP9 DUP1 EXTCODESIZE ISZERO DUP1 ISZERO PUSH2 0x15B JUMPI PUSH1 0x0 DUP1 REVERT JUMPDEST POP GAS CALL ISZERO DUP1 ISZERO PUSH2 0x16F JUMPI RETURNDATASIZE PUSH1 0x0 DUP1 RETURNDATACOPY RETURNDATASIZE PUSH1 0x0 REVERT JUMPDEST POP POP POP POP POP POP POP POP JUMP JUMPDEST PUSH1 0x0 PUSH1 0x1 PUSH8 0xFFFFFFFFFFFFFFFF DUP2 GT ISZERO PUSH2 0x196 JUMPI PUSH2 0x195 PUSH2 0xE15 JUMP JUMPDEST JUMPDEST PUSH1 0x40 MLOAD SWAP1 DUP1 DUP3 MSTORE DUP1 PUSH1 0x20 MUL PUSH1 0x20 ADD DUP3 ADD PUSH1 0x40 MSTORE DUP1 ISZERO PUSH2 0x1CF JUMPI DUP2 PUSH1 0x20 ADD JUMPDEST PUSH2 0x1BC PUSH2 0x3E0 JUMP JUMPDEST DUP2 MSTORE PUSH1 0x20 ADD SWAP1 PUSH1 0x1 SWAP1 SUB SWAP1 DUP2 PUSH2 0x1B4 JUMPI SWAP1 POP JUMPDEST POP SWAP1 POP PUSH1 0x40 MLOAD DUP1 PUSH1 0x40 ADD PUSH1 0x40 MSTORE DUP1 DUP12 DUP12 DUP1 DUP1 PUSH1 0x1F ADD PUSH1 0x20 DUP1 SWAP2 DIV MUL PUSH1 0x20 ADD PUSH1 0x40 MLOAD SWAP1 DUP2 ADD PUSH1 0x40 MSTORE DUP1 SWAP4 SWAP3 SWAP2 SWAP1 DUP2 DUP2 MSTORE PUSH1 0x20 ADD DUP4 DUP4 DUP1 DUP3 DUP5 CALLDATACOPY PUSH1 0x0 DUP2 DUP5 ADD MSTORE PUSH1 0x1F NOT PUSH1 0x1F DUP3 ADD AND SWAP1 POP DUP1 DUP4 ADD SWAP3 POP POP POP POP POP POP POP DUP2 MSTORE PUSH1 0x20 ADD DUP10 DUP10 DUP1 DUP1 PUSH1 0x1F ADD PUSH1 0x20 DUP1 SWAP2 DIV MUL PUSH1 0x20 ADD PUSH1 0x40 MLOAD SWAP1 DUP2 ADD PUSH1 0x40 MSTORE DUP1 SWAP4 SWAP3 SWAP2 SWAP1 DUP2 DUP2 MSTORE PUSH1 0x20 ADD DUP4 DUP4 DUP1 DUP3 DUP5 CALLDATACOPY PUSH1 0x0 DUP2 DUP5 ADD MSTORE PUSH1 0x1F NOT PUSH1 0x1F DUP3 ADD AND SWAP1 POP DUP1 DUP4 ADD SWAP3 POP POP POP POP POP POP POP DUP2 MSTORE POP DUP2 PUSH1 0x0 DUP2 MLOAD DUP2 LT PUSH2 0x283 JUMPI PUSH2 0x282 PUSH2 0xE44 JUMP JUMPDEST JUMPDEST PUSH1 0x20 MUL PUSH1 0x20 ADD ADD DUP2 SWAP1 MSTORE POP PUSH1 0x0 PUSH1 0x40 MLOAD DUP1 PUSH1 0x80 ADD PUSH1 0x40 MSTORE DUP1 DUP4 DUP2 MSTORE PUSH1 0x20 ADD DUP9 DUP2 MSTORE PUSH1 0x20 ADD DUP8 DUP2 MSTORE PUSH1 0x20 ADD DUP7 PUSH20 0xFFFFFFFFFFFFFFFFFFFFFFFFFFFFFFFFFFFFFFFF AND DUP2 MSTORE POP SWAP1 POP PUSH1 0x0 DUP1 SLOAD SWAP1 PUSH2 0x100 EXP SWAP1 DIV PUSH20 0xFFFFFFFFFFFFFFFFFFFFFFFFFFFFFFFFFFFFFFFF AND PUSH20 0xFFFFFFFFFFFFFFFFFFFFFFFFFFFFFFFFFFFFFFFF AND PUSH4 0x8141F9ED CALLVALUE DUP4 DUP8 DUP8 PUSH1 0x40 MLOAD DUP6 PUSH4 0xFFFFFFFF AND PUSH1 0xE0 SHL DUP2 MSTORE PUSH1 0x4 ADD PUSH2 0x327 SWAP4 SWAP3 SWAP2 SWAP1 PUSH2 0xE73 JUMP JUMPDEST PUSH1 0x0 PUSH1 0x40 MLOAD DUP1 DUP4 SUB DUP2 DUP6 DUP9 DUP1 EXTCODESIZE ISZERO DUP1 ISZERO PUSH2 0x340 JUMPI PUSH1 0x0 DUP1 REVERT JUMPDEST POP GAS CALL ISZERO DUP1 ISZERO PUSH2 0x354 JUMPI RETURNDATASIZE PUSH1 0x0 DUP1 RETURNDATACOPY RETURNDATASIZE PUSH1 0x0 REVERT JUMPDEST POP POP POP POP POP POP POP POP POP POP POP POP POP POP POP POP JUMP JUMPDEST PUSH1 0x0 DUP1 SLOAD SWAP1 PUSH2 0x100 EXP SWAP1 DIV PUSH20 0xFFFFFFFFFFFFFFFFFFFFFFFFFFFFFFFFFFFFFFFF AND DUP2 JUMP JUMPDEST PUSH2 0x392 PUSH2 0x3FA JUMP JUMPDEST PUSH1 0x40 MLOAD DUP1 PUSH1 0x80 ADD PUSH1 0x40 MSTORE DUP1 DUP8 DUP8 SWAP1 PUSH2 0x3AA SWAP2 SWAP1 PUSH2 0x10E3 JUMP JUMPDEST DUP2 MSTORE PUSH1 0x20 ADD DUP6 DUP2 MSTORE PUSH1 0x20 ADD DUP5 DUP2 MSTORE PUSH1 0x20 ADD DUP4 PUSH20 0xFFFFFFFFFFFFFFFFFFFFFFFFFFFFFFFFFFFFFFFF AND DUP2 MSTORE POP SWAP1 POP SWAP6 SWAP5 POP POP POP POP POP JUMP JUMPDEST PUSH1 0x40 MLOAD DUP1 PUSH1 0x40 ADD PUSH1 0x40 MSTORE DUP1 PUSH1 0x60 DUP2 MSTORE PUSH1 0x20 ADD PUSH1 0x60 DUP2 MSTORE POP SWAP1 JUMP JUMPDEST PUSH1 0x40 MLOAD DUP1 PUSH1 0x80 ADD PUSH1 0x40 MSTORE DUP1 PUSH1 0x60 DUP2 MSTORE PUSH1 0x20 ADD PUSH1 0x0 DUP2 MSTORE PUSH1 0x20 ADD PUSH1 0x0 DUP2 MSTORE PUSH1 0x20 ADD PUSH1 0x0 PUSH20 0xFFFFFFFFFFFFFFFFFFFFFFFFFFFFFFFFFFFFFFFF AND DUP2 MSTORE POP SWAP1 JUMP JUMPDEST PUSH1 0x0 PUSH1 0x40 MLOAD SWAP1 POP SWAP1 JUMP JUMPDEST PUSH1 0x0 DUP1 REVERT JUMPDEST PUSH1 0x0 DUP1 REVERT JUMPDEST PUSH1 0x0 DUP1 REVERT JUMPDEST PUSH1 0x0 PUSH1 0x80 DUP3 DUP5 SUB SLT ISZERO PUSH2 0x467 JUMPI PUSH2 0x466 PUSH2 0x44C JUMP JUMPDEST JUMPDEST DUP2 SWAP1 POP SWAP3 SWAP2 POP POP JUMP JUMPDEST PUSH1 0x0 DUP1 REVERT JUMPDEST PUSH1 0x0 DUP1 REVERT JUMPDEST PUSH1 0x0 DUP1 REVERT JUMPDEST PUSH1 0x0 DUP1 DUP4 PUSH1 0x1F DUP5 ADD SLT PUSH2 0x495 JUMPI PUSH2 0x494 PUSH2 0x470 JUMP JUMPDEST JUMPDEST DUP3 CALLDATALOAD SWAP1 POP PUSH8 0xFFFFFFFFFFFFFFFF DUP2 GT ISZERO PUSH2 0x4B2 JUMPI PUSH2 0x4B1 PUSH2 0x475 JUMP JUMPDEST JUMPDEST PUSH1 0x20 DUP4 ADD SWAP2 POP DUP4 PUSH1 0x1 DUP3 MUL DUP4 ADD GT ISZERO PUSH2 0x4CE JUMPI PUSH2 0x4CD PUSH2 0x47A JUMP JUMPDEST JUMPDEST SWAP3 POP SWAP3 SWAP1 POP JUMP JUMPDEST PUSH1 0x0 DUP1 PUSH1 0x0 PUSH1 0x40 DUP5 DUP7 SUB SLT ISZERO PUSH2 0x4EE JUMPI PUSH2 0x4ED PUSH2 0x442 JUMP JUMPDEST JUMPDEST PUSH1 0x0 DUP5 ADD CALLDATALOAD PUSH8 0xFFFFFFFFFFFFFFFF DUP2 GT ISZERO PUSH2 0x50C JUMPI PUSH2 0x50B PUSH2 0x447 JUMP JUMPDEST JUMPDEST PUSH2 0x518 DUP7 DUP3 DUP8 ADD PUSH2 0x451 JUMP JUMPDEST SWAP4 POP POP PUSH1 0x20 DUP5 ADD CALLDATALOAD PUSH8 0xFFFFFFFFFFFFFFFF DUP2 GT ISZERO PUSH2 0x539 JUMPI PUSH2 0x538 PUSH2 0x447 JUMP JUMPDEST JUMPDEST PUSH2 0x545 DUP7 DUP3 DUP8 ADD PUSH2 0x47F JUMP JUMPDEST SWAP3 POP SWAP3 POP POP SWAP3 POP SWAP3 POP SWAP3 JUMP JUMPDEST PUSH1 0x0 DUP1 DUP4 PUSH1 0x1F DUP5 ADD SLT PUSH2 0x567 JUMPI PUSH2 0x566 PUSH2 0x470 JUMP JUMPDEST JUMPDEST DUP3 CALLDATALOAD SWAP1 POP PUSH8 0xFFFFFFFFFFFFFFFF DUP2 GT ISZERO PUSH2 0x584 JUMPI PUSH2 0x583 PUSH2 0x475 JUMP JUMPDEST JUMPDEST PUSH1 0x20 DUP4 ADD SWAP2 POP DUP4 PUSH1 0x1 DUP3 MUL DUP4 ADD GT ISZERO PUSH2 0x5A0 JUMPI PUSH2 0x59F PUSH2 0x47A JUMP JUMPDEST JUMPDEST SWAP3 POP SWAP3 SWAP1 POP JUMP JUMPDEST PUSH1 0x0 DUP2 SWAP1 POP SWAP2 SWAP1 POP JUMP JUMPDEST PUSH2 0x5BA DUP2 PUSH2 0x5A7 JUMP JUMPDEST DUP2 EQ PUSH2 0x5C5 JUMPI PUSH1 0x0 DUP1 REVERT JUMPDEST POP JUMP JUMPDEST PUSH1 0x0 DUP2 CALLDATALOAD SWAP1 POP PUSH2 0x5D7 DUP2 PUSH2 0x5B1 JUMP JUMPDEST SWAP3 SWAP2 POP POP JUMP JUMPDEST PUSH1 0x0 PUSH20 0xFFFFFFFFFFFFFFFFFFFFFFFFFFFFFFFFFFFFFFFF DUP3 AND SWAP1 POP SWAP2 SWAP1 POP JUMP JUMPDEST PUSH1 0x0 PUSH2 0x608 DUP3 PUSH2 0x5DD JUMP JUMPDEST SWAP1 POP SWAP2 SWAP1 POP JUMP JUMPDEST PUSH2 0x618 DUP2 PUSH2 0x5FD JUMP JUMPDEST DUP2 EQ PUSH2 0x623 JUMPI PUSH1 0x0 DUP1 REVERT JUMPDEST POP JUMP JUMPDEST PUSH1 0x0 DUP2 CALLDATALOAD SWAP1 POP PUSH2 0x635 DUP2 PUSH2 0x60F JUMP JUMPDEST SWAP3 SWAP2 POP POP JUMP JUMPDEST PUSH1 0x0 DUP1 PUSH1 0x0 DUP1 PUSH1 0x0 DUP1 PUSH1 0x0 DUP1 PUSH1 0x0 PUSH1 0xC0 DUP11 DUP13 SUB SLT ISZERO PUSH2 0x65D JUMPI PUSH2 0x65C PUSH2 0x442 JUMP JUMPDEST JUMPDEST PUSH1 0x0 DUP11 ADD CALLDATALOAD PUSH8 0xFFFFFFFFFFFFFFFF DUP2 GT ISZERO PUSH2 0x67B JUMPI PUSH2 0x67A PUSH2 0x447 JUMP JUMPDEST JUMPDEST PUSH2 0x687 DUP13 DUP3 DUP14 ADD PUSH2 0x551 JUMP JUMPDEST SWAP10 POP SWAP10 POP POP PUSH1 0x20 DUP11 ADD CALLDATALOAD PUSH8 0xFFFFFFFFFFFFFFFF DUP2 GT ISZERO PUSH2 0x6AA JUMPI PUSH2 0x6A9 PUSH2 0x447 JUMP JUMPDEST JUMPDEST PUSH2 0x6B6 DUP13 DUP3 DUP14 ADD PUSH2 0x551 JUMP JUMPDEST SWAP8 POP SWAP8 POP POP PUSH1 0x40 PUSH2 0x6C9 DUP13 DUP3 DUP14 ADD PUSH2 0x5C8 JUMP JUMPDEST SWAP6 POP POP PUSH1 0x60 PUSH2 0x6DA DUP13 DUP3 DUP14 ADD PUSH2 0x5C8 JUMP JUMPDEST SWAP5 POP POP PUSH1 0x80 PUSH2 0x6EB DUP13 DUP3 DUP14 ADD PUSH2 0x626 JUMP JUMPDEST SWAP4 POP POP PUSH1 0xA0 DUP11 ADD CALLDATALOAD PUSH8 0xFFFFFFFFFFFFFFFF DUP2 GT ISZERO PUSH2 0x70C JUMPI PUSH2 0x70B PUSH2 0x447 JUMP JUMPDEST JUMPDEST PUSH2 0x718 DUP13 DUP3 DUP14 ADD PUSH2 0x47F JUMP JUMPDEST SWAP3 POP SWAP3 POP POP SWAP3 SWAP6 SWAP9 POP SWAP3 SWAP6 SWAP9 POP SWAP3 SWAP6 SWAP9 JUMP JUMPDEST PUSH1 0x0 DUP2 SWAP1 POP SWAP2 SWAP1 POP JUMP JUMPDEST PUSH1 0x0 PUSH2 0x74F PUSH2 0x74A PUSH2 0x745 DUP5 PUSH2 0x5DD JUMP JUMPDEST PUSH2 0x72A JUMP JUMPDEST PUSH2 0x5DD JUMP JUMPDEST SWAP1 POP SWAP2 SWAP1 POP JUMP JUMPDEST PUSH1 0x0 PUSH2 0x761 DUP3 PUSH2 0x734 JUMP JUMPDEST SWAP1 POP SWAP2 SWAP1 POP JUMP JUMPDEST PUSH1 0x0 PUSH2 0x773 DUP3 PUSH2 0x756 JUMP JUMPDEST SWAP1 POP SWAP2 SWAP1 POP JUMP JUMPDEST PUSH2 0x783 DUP2 PUSH2 0x768 JUMP JUMPDEST DUP3 MSTORE POP POP JUMP JUMPDEST PUSH1 0x0 PUSH1 0x20 DUP3 ADD SWAP1 POP PUSH2 0x79E PUSH1 0x0 DUP4 ADD DUP5 PUSH2 0x77A JUMP JUMPDEST SWAP3 SWAP2 POP POP JUMP JUMPDEST PUSH1 0x0 DUP1 DUP4 PUSH1 0x1F DUP5 ADD SLT PUSH2 0x7BA JUMPI PUSH2 0x7B9 PUSH2 0x470 JUMP JUMPDEST JUMPDEST DUP3 CALLDATALOAD SWAP1 POP PUSH8 0xFFFFFFFFFFFFFFFF DUP2 GT ISZERO PUSH2 0x7D7 JUMPI PUSH2 0x7D6 PUSH2 0x475 JUMP JUMPDEST JUMPDEST PUSH1 0x20 DUP4 ADD SWAP2 POP DUP4 PUSH1 0x20 DUP3 MUL DUP4 ADD GT ISZERO PUSH2 0x7F3 JUMPI PUSH2 0x7F2 PUSH2 0x47A JUMP JUMPDEST JUMPDEST SWAP3 POP SWAP3 SWAP1 POP JUMP JUMPDEST PUSH1 0x0 DUP1 PUSH1 0x0 DUP1 PUSH1 0x0 PUSH1 0x80 DUP7 DUP9 SUB SLT ISZERO PUSH2 0x816 JUMPI PUSH2 0x815 PUSH2 0x442 JUMP JUMPDEST JUMPDEST PUSH1 0x0 DUP7 ADD CALLDATALOAD PUSH8 0xFFFFFFFFFFFFFFFF DUP2 GT ISZERO PUSH2 0x834 JUMPI PUSH2 0x833 PUSH2 0x447 JUMP JUMPDEST JUMPDEST PUSH2 0x840 DUP9 DUP3 DUP10 ADD PUSH2 0x7A4 JUMP JUMPDEST SWAP6 POP SWAP6 POP POP PUSH1 0x20 PUSH2 0x853 DUP9 DUP3 DUP10 ADD PUSH2 0x5C8 JUMP JUMPDEST SWAP4 POP POP PUSH1 0x40 PUSH2 0x864 DUP9 DUP3 DUP10 ADD PUSH2 0x5C8 JUMP JUMPDEST SWAP3 POP POP PUSH1 0x60 PUSH2 0x875 DUP9 DUP3 DUP10 ADD PUSH2 0x626 JUMP JUMPDEST SWAP2 POP POP SWAP3 SWAP6 POP SWAP3 SWAP6 SWAP1 SWAP4 POP JUMP JUMPDEST PUSH1 0x0 DUP2 MLOAD SWAP1 POP SWAP2 SWAP1 POP JUMP JUMPDEST PUSH1 0x0 DUP3 DUP3 MSTORE PUSH1 0x20 DUP3 ADD SWAP1 POP SWAP3 SWAP2 POP POP JUMP JUMPDEST PUSH1 0x0 DUP2 SWAP1 POP PUSH1 0x20 DUP3 ADD SWAP1 POP SWAP2 SWAP1 POP JUMP JUMPDEST PUSH1 0x0 DUP2 MLOAD SWAP1 POP SWAP2 SWAP1 POP JUMP JUMPDEST PUSH1 0x0 DUP3 DUP3 MSTORE PUSH1 0x20 DUP3 ADD SWAP1 POP SWAP3 SWAP2 POP POP JUMP JUMPDEST PUSH1 0x0 JUMPDEST DUP4 DUP2 LT ISZERO PUSH2 0x8E8 JUMPI DUP1 DUP3 ADD MLOAD DUP2 DUP5 ADD MSTORE PUSH1 0x20 DUP2 ADD SWAP1 POP PUSH2 0x8CD JUMP JUMPDEST PUSH1 0x0 DUP5 DUP5 ADD MSTORE POP POP POP POP JUMP JUMPDEST PUSH1 0x0 PUSH1 0x1F NOT PUSH1 0x1F DUP4 ADD AND SWAP1 POP SWAP2 SWAP1 POP JUMP JUMPDEST PUSH1 0x0 PUSH2 0x910 DUP3 PUSH2 0x8AE JUMP JUMPDEST PUSH2 0x91A DUP2 DUP6 PUSH2 0x8B9 JUMP JUMPDEST SWAP4 POP PUSH2 0x92A DUP2 DUP6 PUSH1 0x20 DUP7 ADD PUSH2 0x8CA JUMP JUMPDEST PUSH2 0x933 DUP2 PUSH2 0x8F4 JUMP JUMPDEST DUP5 ADD SWAP2 POP POP SWAP3 SWAP2 POP POP JUMP JUMPDEST PUSH1 0x0 PUSH1 0x40 DUP4 ADD PUSH1 0x0 DUP4 ADD MLOAD DUP5 DUP3 SUB PUSH1 0x0 DUP7 ADD MSTORE PUSH2 0x95B DUP3 DUP3 PUSH2 0x905 JUMP JUMPDEST SWAP2 POP POP PUSH1 0x20 DUP4 ADD MLOAD DUP5 DUP3 SUB PUSH1 0x20 DUP7 ADD MSTORE PUSH2 0x975 DUP3 DUP3 PUSH2 0x905 JUMP JUMPDEST SWAP2 POP POP DUP1 SWAP2 POP POP SWAP3 SWAP2 POP POP JUMP JUMPDEST PUSH1 0x0 PUSH2 0x98E DUP4 DUP4 PUSH2 0x93E JUMP JUMPDEST SWAP1 POP SWAP3 SWAP2 POP POP JUMP JUMPDEST PUSH1 0x0 PUSH1 0x20 DUP3 ADD SWAP1 POP SWAP2 SWAP1 POP JUMP JUMPDEST PUSH1 0x0 PUSH2 0x9AE DUP3 PUSH2 0x882 JUMP JUMPDEST PUSH2 0x9B8 DUP2 DUP6 PUSH2 0x88D JUMP JUMPDEST SWAP4 POP DUP4 PUSH1 0x20 DUP3 MUL DUP6 ADD PUSH2 0x9CA DUP6 PUSH2 0x89E JUMP JUMPDEST DUP1 PUSH1 0x0 JUMPDEST DUP6 DUP2 LT ISZERO PUSH2 0xA06 JUMPI DUP5 DUP5 SUB DUP10 MSTORE DUP2 MLOAD PUSH2 0x9E7 DUP6 DUP3 PUSH2 0x982 JUMP JUMPDEST SWAP5 POP PUSH2 0x9F2 DUP4 PUSH2 0x996 JUMP JUMPDEST SWAP3 POP PUSH1 0x20 DUP11 ADD SWAP10 POP POP PUSH1 0x1 DUP2 ADD SWAP1 POP PUSH2 0x9CE JUMP JUMPDEST POP DUP3 SWAP8 POP DUP8 SWAP6 POP POP POP POP POP POP SWAP3 SWAP2 POP POP JUMP JUMPDEST PUSH2 0xA21 DUP2 PUSH2 0x5A7 JUMP JUMPDEST DUP3 MSTORE POP POP JUMP JUMPDEST PUSH2 0xA30 DUP2 PUSH2 0x5FD JUMP JUMPDEST DUP3 MSTORE POP POP JUMP JUMPDEST PUSH1 0x0 PUSH1 0x80 DUP4 ADD PUSH1 0x0 DUP4 ADD MLOAD DUP5 DUP3 SUB PUSH1 0x0 DUP7 ADD MSTORE PUSH2 0xA53 DUP3 DUP3 PUSH2 0x9A3 JUMP JUMPDEST SWAP2 POP POP PUSH1 0x20 DUP4 ADD MLOAD PUSH2 0xA68 PUSH1 0x20 DUP7 ADD DUP3 PUSH2 0xA18 JUMP JUMPDEST POP PUSH1 0x40 DUP4 ADD MLOAD PUSH2 0xA7B PUSH1 0x40 DUP7 ADD DUP3 PUSH2 0xA18 JUMP JUMPDEST POP PUSH1 0x60 DUP4 ADD MLOAD PUSH2 0xA8E PUSH1 0x60 DUP7 ADD DUP3 PUSH2 0xA27 JUMP JUMPDEST POP DUP1 SWAP2 POP POP SWAP3 SWAP2 POP POP JUMP JUMPDEST PUSH1 0x0 PUSH1 0x20 DUP3 ADD SWAP1 POP DUP2 DUP2 SUB PUSH1 0x0 DUP4 ADD MSTORE PUSH2 0xAB3 DUP2 DUP5 PUSH2 0xA36 JUMP JUMPDEST SWAP1 POP SWAP3 SWAP2 POP POP JUMP JUMPDEST PUSH1 0x0 DUP1 REVERT JUMPDEST PUSH1 0x0 DUP1 REVERT JUMPDEST PUSH1 0x0 DUP1 REVERT JUMPDEST PUSH1 0x0 DUP1 DUP4 CALLDATALOAD PUSH1 0x1 PUSH1 0x20 SUB DUP5 CALLDATASIZE SUB SUB DUP2 SLT PUSH2 0xAE7 JUMPI PUSH2 0xAE6 PUSH2 0xAC5 JUMP JUMPDEST JUMPDEST DUP4 DUP2 ADD SWAP3 POP DUP3 CALLDATALOAD SWAP2 POP PUSH1 0x20 DUP4 ADD SWAP3 POP PUSH8 0xFFFFFFFFFFFFFFFF DUP3 GT ISZERO PUSH2 0xB0F JUMPI PUSH2 0xB0E PUSH2 0xABB JUMP JUMPDEST JUMPDEST PUSH1 0x20 DUP3 MUL CALLDATASIZE SUB DUP4 SGT ISZERO PUSH2 0xB25 JUMPI PUSH2 0xB24 PUSH2 0xAC0 JUMP JUMPDEST JUMPDEST POP SWAP3 POP SWAP3 SWAP1 POP JUMP JUMPDEST PUSH1 0x0 DUP2 SWAP1 POP SWAP2 SWAP1 POP JUMP JUMPDEST PUSH1 0x0 DUP1 DUP4 CALLDATALOAD PUSH1 0x1 PUSH1 0x20 SUB DUP5 CALLDATASIZE SUB SUB DUP2 SLT PUSH2 0xB54 JUMPI PUSH2 0xB53 PUSH2 0xAC5 JUMP JUMPDEST JUMPDEST DUP4 DUP2 ADD SWAP3 POP DUP3 CALLDATALOAD SWAP2 POP PUSH1 0x20 DUP4 ADD SWAP3 POP PUSH8 0xFFFFFFFFFFFFFFFF DUP3 GT ISZERO PUSH2 0xB7C JUMPI PUSH2 0xB7B PUSH2 0xABB JUMP JUMPDEST JUMPDEST PUSH1 0x1 DUP3 MUL CALLDATASIZE SUB DUP4 SGT ISZERO PUSH2 0xB92 JUMPI PUSH2 0xB91 PUSH2 0xAC0 JUMP JUMPDEST JUMPDEST POP SWAP3 POP SWAP3 SWAP1 POP JUMP JUMPDEST DUP3 DUP2 DUP4 CALLDATACOPY PUSH1 0x0 DUP4 DUP4 ADD MSTORE POP POP POP JUMP JUMPDEST PUSH1 0x0 PUSH2 0xBB5 DUP4 DUP6 PUSH2 0x8B9 JUMP JUMPDEST SWAP4 POP PUSH2 0xBC2 DUP4 DUP6 DUP5 PUSH2 0xB9A JUMP JUMPDEST PUSH2 0xBCB DUP4 PUSH2 0x8F4 JUMP JUMPDEST DUP5 ADD SWAP1 POP SWAP4 SWAP3 POP POP POP JUMP JUMPDEST PUSH1 0x0 PUSH1 0x40 DUP4 ADD PUSH2 0xBE9 PUSH1 0x0 DUP5 ADD DUP5 PUSH2 0xB37 JUMP JUMPDEST DUP6 DUP4 SUB PUSH1 0x0 DUP8 ADD MSTORE PUSH2 0xBFC DUP4 DUP3 DUP5 PUSH2 0xBA9 JUMP JUMPDEST SWAP3 POP POP POP PUSH2 0xC0D PUSH1 0x20 DUP5 ADD DUP5 PUSH2 0xB37 JUMP JUMPDEST DUP6 DUP4 SUB PUSH1 0x20 DUP8 ADD MSTORE PUSH2 0xC20 DUP4 DUP3 DUP5 PUSH2 0xBA9 JUMP JUMPDEST SWAP3 POP POP POP DUP1 SWAP2 POP POP SWAP3 SWAP2 POP POP JUMP JUMPDEST PUSH1 0x0 PUSH2 0xC3A DUP4 DUP4 PUSH2 0xBD6 JUMP JUMPDEST SWAP1 POP SWAP3 SWAP2 POP POP JUMP JUMPDEST PUSH1 0x0 DUP3 CALLDATALOAD PUSH1 0x1 PUSH1 0x40 SUB DUP4 CALLDATASIZE SUB SUB DUP2 SLT PUSH2 0xC5E JUMPI PUSH2 0xC5D PUSH2 0xAC5 JUMP JUMPDEST JUMPDEST DUP3 DUP2 ADD SWAP2 POP POP SWAP3 SWAP2 POP POP JUMP JUMPDEST PUSH1 0x0 PUSH1 0x20 DUP3 ADD SWAP1 POP SWAP2 SWAP1 POP JUMP JUMPDEST PUSH1 0x0 PUSH2 0xC83 DUP4 DUP6 PUSH2 0x88D JUMP JUMPDEST SWAP4 POP DUP4 PUSH1 0x20 DUP5 MUL DUP6 ADD PUSH2 0xC95 DUP5 PUSH2 0xB2D JUMP JUMPDEST DUP1 PUSH1 0x0 JUMPDEST DUP8 DUP2 LT ISZERO PUSH2 0xCD9 JUMPI DUP5 DUP5 SUB DUP10 MSTORE PUSH2 0xCB0 DUP3 DUP5 PUSH2 0xC42 JUMP JUMPDEST PUSH2 0xCBA DUP6 DUP3 PUSH2 0xC2E JUMP JUMPDEST SWAP5 POP PUSH2 0xCC5 DUP4 PUSH2 0xC6A JUMP JUMPDEST SWAP3 POP PUSH1 0x20 DUP11 ADD SWAP10 POP POP PUSH1 0x1 DUP2 ADD SWAP1 POP PUSH2 0xC99 JUMP JUMPDEST POP DUP3 SWAP8 POP DUP8 SWAP5 POP POP POP POP POP SWAP4 SWAP3 POP POP POP JUMP JUMPDEST PUSH1 0x0 PUSH2 0xCFA PUSH1 0x20 DUP5 ADD DUP5 PUSH2 0x5C8 JUMP JUMPDEST SWAP1 POP SWAP3 SWAP2 POP POP JUMP JUMPDEST PUSH1 0x0 PUSH2 0xD11 PUSH1 0x20 DUP5 ADD DUP5 PUSH2 0x626 JUMP JUMPDEST SWAP1 POP SWAP3 SWAP2 POP POP JUMP JUMPDEST PUSH1 0x0 PUSH1 0x80 DUP4 ADD PUSH2 0xD2C PUSH1 0x0 DUP5 ADD DUP5 PUSH2 0xACA JUMP JUMPDEST DUP6 DUP4 SUB PUSH1 0x0 DUP8 ADD MSTORE PUSH2 0xD3F DUP4 DUP3 DUP5 PUSH2 0xC77 JUMP JUMPDEST SWAP3 POP POP POP PUSH2 0xD50 PUSH1 0x20 DUP5 ADD DUP5 PUSH2 0xCEB JUMP JUMPDEST PUSH2 0xD5D PUSH1 0x20 DUP7 ADD DUP3 PUSH2 0xA18 JUMP JUMPDEST POP PUSH2 0xD6B PUSH1 0x40 DUP5 ADD DUP5 PUSH2 0xCEB JUMP JUMPDEST PUSH2 0xD78 PUSH1 0x40 DUP7 ADD DUP3 PUSH2 0xA18 JUMP JUMPDEST POP PUSH2 0xD86 PUSH1 0x60 DUP5 ADD DUP5 PUSH2 0xD02 JUMP JUMPDEST PUSH2 0xD93 PUSH1 0x60 DUP7 ADD DUP3 PUSH2 0xA27 JUMP JUMPDEST POP DUP1 SWAP2 POP POP SWAP3 SWAP2 POP POP JUMP JUMPDEST PUSH1 0x0 DUP3 DUP3 MSTORE PUSH1 0x20 DUP3 ADD SWAP1 POP SWAP3 SWAP2 POP POP JUMP JUMPDEST PUSH1 0x0 PUSH2 0xDBB DUP4 DUP6 PUSH2 0xD9E JUMP JUMPDEST SWAP4 POP PUSH2 0xDC8 DUP4 DUP6 DUP5 PUSH2 0xB9A JUMP JUMPDEST PUSH2 0xDD1 DUP4 PUSH2 0x8F4 JUMP JUMPDEST DUP5 ADD SWAP1 POP SWAP4 SWAP3 POP POP POP JUMP JUMPDEST PUSH1 0x0 PUSH1 0x40 DUP3 ADD SWAP1 POP DUP2 DUP2 SUB PUSH1 0x0 DUP4 ADD MSTORE PUSH2 0xDF6 DUP2 DUP7 PUSH2 0xD19 JUMP JUMPDEST SWAP1 POP DUP2 DUP2 SUB PUSH1 0x20 DUP4 ADD MSTORE PUSH2 0xE0B DUP2 DUP5 DUP7 PUSH2 0xDAF JUMP JUMPDEST SWAP1 POP SWAP5 SWAP4 POP POP POP POP JUMP JUMPDEST PUSH32 0x4E487B7100000000000000000000000000000000000000000000000000000000 PUSH1 0x0 MSTORE PUSH1 0x41 PUSH1 0x4 MSTORE PUSH1 0x24 PUSH1 0x0 REVERT JUMPDEST PUSH32 0x4E487B7100000000000000000000000000000000000000000000000000000000 PUSH1 0x0 MSTORE PUSH1 0x32 PUSH1 0x4 MSTORE PUSH1 0x24 PUSH1 0x0 REVERT JUMPDEST PUSH1 0x0 PUSH1 0x40 DUP3 ADD SWAP1 POP DUP2 DUP2 SUB PUSH1 0x0 DUP4 ADD MSTORE PUSH2 0xE8D DUP2 DUP7 PUSH2 0xA36 JUMP JUMPDEST SWAP1 POP DUP2 DUP2 SUB PUSH1 0x20 DUP4 ADD MSTORE PUSH2 0xEA2 DUP2 DUP5 DUP7 PUSH2 0xDAF JUMP JUMPDEST SWAP1 POP SWAP5 SWAP4 POP POP POP POP JUMP JUMPDEST PUSH2 0xEB5 DUP3 PUSH2 0x8F4 JUMP JUMPDEST DUP2 ADD DUP2 DUP2 LT PUSH8 0xFFFFFFFFFFFFFFFF DUP3 GT OR ISZERO PUSH2 0xED4 JUMPI PUSH2 0xED3 PUSH2 0xE15 JUMP JUMPDEST JUMPDEST DUP1 PUSH1 0x40 MSTORE POP POP POP JUMP JUMPDEST PUSH1 0x0 PUSH2 0xEE7 PUSH2 0x438 JUMP JUMPDEST SWAP1 POP PUSH2 0xEF3 DUP3 DUP3 PUSH2 0xEAC JUMP JUMPDEST SWAP2 SWAP1 POP JUMP JUMPDEST PUSH1 0x0 PUSH8 0xFFFFFFFFFFFFFFFF DUP3 GT ISZERO PUSH2 0xF13 JUMPI PUSH2 0xF12 PUSH2 0xE15 JUMP JUMPDEST JUMPDEST PUSH1 0x20 DUP3 MUL SWAP1 POP PUSH1 0x20 DUP2 ADD SWAP1 POP SWAP2 SWAP1 POP JUMP JUMPDEST PUSH1 0x0 DUP1 REVERT JUMPDEST PUSH1 0x0 DUP1 REVERT JUMPDEST PUSH1 0x0 DUP1 REVERT JUMPDEST PUSH1 0x0 PUSH8 0xFFFFFFFFFFFFFFFF DUP3 GT ISZERO PUSH2 0xF4E JUMPI PUSH2 0xF4D PUSH2 0xE15 JUMP JUMPDEST JUMPDEST PUSH2 0xF57 DUP3 PUSH2 0x8F4 JUMP JUMPDEST SWAP1 POP PUSH1 0x20 DUP2 ADD SWAP1 POP SWAP2 SWAP1 POP JUMP JUMPDEST PUSH1 0x0 PUSH2 0xF77 PUSH2 0xF72 DUP5 PUSH2 0xF33 JUMP JUMPDEST PUSH2 0xEDD JUMP JUMPDEST SWAP1 POP DUP3 DUP2 MSTORE PUSH1 0x20 DUP2 ADD DUP5 DUP5 DUP5 ADD GT ISZERO PUSH2 0xF93 JUMPI PUSH2 0xF92 PUSH2 0xF2E JUMP JUMPDEST JUMPDEST PUSH2 0xF9E DUP5 DUP3 DUP6 PUSH2 0xB9A JUMP JUMPDEST POP SWAP4 SWAP3 POP POP POP JUMP JUMPDEST PUSH1 0x0 DUP3 PUSH1 0x1F DUP4 ADD SLT PUSH2 0xFBB JUMPI PUSH2 0xFBA PUSH2 0x470 JUMP JUMPDEST JUMPDEST DUP2 CALLDATALOAD PUSH2 0xFCB DUP5 DUP3 PUSH1 0x20 DUP7 ADD PUSH2 0xF64 JUMP JUMPDEST SWAP2 POP POP SWAP3 SWAP2 POP POP JUMP JUMPDEST PUSH1 0x0 PUSH1 0x40 DUP3 DUP5 SUB SLT ISZERO PUSH2 0xFEA JUMPI PUSH2 0xFE9 PUSH2 0xF24 JUMP JUMPDEST JUMPDEST PUSH2 0xFF4 PUSH1 0x40 PUSH2 0xEDD JUMP JUMPDEST SWAP1 POP PUSH1 0x0 DUP3 ADD CALLDATALOAD PUSH8 0xFFFFFFFFFFFFFFFF DUP2 GT ISZERO PUSH2 0x1014 JUMPI PUSH2 0x1013 PUSH2 0xF29 JUMP JUMPDEST JUMPDEST PUSH2 0x1020 DUP5 DUP3 DUP6 ADD PUSH2 0xFA6 JUMP JUMPDEST PUSH1 0x0 DUP4 ADD MSTORE POP PUSH1 0x20 DUP3 ADD CALLDATALOAD PUSH8 0xFFFFFFFFFFFFFFFF DUP2 GT ISZERO PUSH2 0x1044 JUMPI PUSH2 0x1043 PUSH2 0xF29 JUMP JUMPDEST JUMPDEST PUSH2 0x1050 DUP5 DUP3 DUP6 ADD PUSH2 0xFA6 JUMP JUMPDEST PUSH1 0x20 DUP4 ADD MSTORE POP SWAP3 SWAP2 POP POP JUMP JUMPDEST PUSH1 0x0 PUSH2 0x106F PUSH2 0x106A DUP5 PUSH2 0xEF8 JUMP JUMPDEST PUSH2 0xEDD JUMP JUMPDEST SWAP1 POP DUP1 DUP4 DUP3 MSTORE PUSH1 0x20 DUP3 ADD SWAP1 POP PUSH1 0x20 DUP5 MUL DUP4 ADD DUP6 DUP2 GT ISZERO PUSH2 0x1092 JUMPI PUSH2 0x1091 PUSH2 0x47A JUMP JUMPDEST JUMPDEST DUP4 JUMPDEST DUP2 DUP2 LT ISZERO PUSH2 0x10D9 JUMPI DUP1 CALLDATALOAD PUSH8 0xFFFFFFFFFFFFFFFF DUP2 GT ISZERO PUSH2 0x10B7 JUMPI PUSH2 0x10B6 PUSH2 0x470 JUMP JUMPDEST JUMPDEST DUP1 DUP7 ADD PUSH2 0x10C4 DUP10 DUP3 PUSH2 0xFD4 JUMP JUMPDEST DUP6 MSTORE PUSH1 0x20 DUP6 ADD SWAP5 POP POP POP PUSH1 0x20 DUP2 ADD SWAP1 POP PUSH2 0x1094 JUMP JUMPDEST POP POP POP SWAP4 SWAP3 POP POP POP JUMP JUMPDEST PUSH1 0x0 PUSH2 0x10F0 CALLDATASIZE DUP5 DUP5 PUSH2 0x105C JUMP JUMPDEST SWAP1 POP SWAP3 SWAP2 POP POP JUMP INVALID LOG2 PUSH5 0x6970667358 0x22 SLT KECCAK256 0xC0 0xBA PUSH4 0x66009CCD 0xD RETURNDATASIZE PUSH27 0xE9910B22A59411B387FA377B372FF69D90C917B6853B64736F6C63 NUMBER STOP ADDMOD SHR STOP CALLER "},"methodIdentifiers":{"createVoucher((string,string)[],uint256,uint256,address)":"e87f3a88","domaRecord()":"96e12c7c","tokenize(((string,string)[],uint256,uint256,address),bytes)":"3dfc8766","tokenizeSingleDomain(string,string,uint256,uint256,address,bytes)":"85c680fa"}}}}}