{
  "_format": "hh-sol-artifact-1",
  "contractName": "DomaDomainAuction",
  "sourceName": "contracts/EnglishAuction.sol",
  "abi": [
    {
      "inputs": [
        {
          "internalType": "address",
          "name": "_tokenContract",
          "type": "address"
        }
      ],
      "stateMutability": "nonpayable",
      "type": "constructor"
    },
    {
      "inputs": [],
      "name": "ReentrancyGuardReentrantCall",
      "type": "error"
    },
    {
      "anonymous": false,
      "inputs": [
        {
          "indexed": true,
          "internalType": "uint256",
          "name": "auctionId",
          "type": "uint256"
        },
        {
          "indexed": false,
          "internalType": "address",
          "name": "seller",
          "type": "address"
        },
        {
          "indexed": false,
          "internalType": "uint256",
          "name": "tokenId",
          "type": "uint256"
        },
        {
          "indexed": false,
          "internalType": "string",
          "name": "domainName",
          "type": "string"
        },
        {
          "indexed": false,
          "internalType": "uint256",
          "name": "startTime",
          "type": "uint256"
        },
        {
          "indexed": false,
          "internalType": "uint256",
          "name": "endTime",
          "type": "uint256"
        },
        {
          "indexed": false,
          "internalType": "uint256",
          "name": "reservePrice",
          "type": "uint256"
        }
      ],
      "name": "AuctionCreated",
      "type": "event"
    },
    {
      "anonymous": false,
      "inputs": [
        {
          "indexed": true,
          "internalType": "uint256",
          "name": "auctionId",
          "type": "uint256"
        },
        {
          "indexed": false,
          "internalType": "address",
          "name": "winner",
          "type": "address"
        },
        {
          "indexed": false,
          "internalType": "uint256",
          "name": "amount",
          "type": "uint256"
        }
      ],
      "name": "AuctionSettled",
      "type": "event"
    },
    {
      "anonymous": false,
      "inputs": [
        {
          "indexed": true,
          "internalType": "uint256",
          "name": "auctionId",
          "type": "uint256"
        },
        {
          "indexed": false,
          "internalType": "uint256",
          "name": "tokenId",
          "type": "uint256"
        },
        {
          "indexed": false,
          "internalType": "string",
          "name": "domainName",
          "type": "string"
        },
        {
          "indexed": false,
          "internalType": "address",
          "name": "bidder",
          "type": "address"
        },
        {
          "indexed": false,
          "internalType": "uint256",
          "name": "amount",
          "type": "uint256"
        }
      ],
      "name": "BidPlaced",
      "type": "event"
    },
    {
      "anonymous": false,
      "inputs": [
        {
          "indexed": true,
          "internalType": "address",
          "name": "user",
          "type": "address"
        },
        {
          "indexed": false,
          "internalType": "uint256",
          "name": "amount",
          "type": "uint256"
        }
      ],
      "name": "Withdrawal",
      "type": "event"
    },
    {
      "inputs": [
        {
          "internalType": "uint256",
          "name": "",
          "type": "uint256"
        }
      ],
      "name": "auctions",
      "outputs": [
        {
          "internalType": "uint256",
          "name": "tokenId",
          "type": "uint256"
        },
        {
          "internalType": "address",
          "name": "seller",
          "type": "address"
        },
        {
          "internalType": "uint256",
          "name": "startTime",
          "type": "uint256"
        },
        {
          "internalType": "uint256",
          "name": "endTime",
          "type": "uint256"
        },
        {
          "internalType": "uint256",
          "name": "reservePrice",
          "type": "uint256"
        },
        {
          "internalType": "uint256",
          "name": "minIncrement",
          "type": "uint256"
        },
        {
          "internalType": "bool",
          "name": "settled",
          "type": "bool"
        },
        {
          "internalType": "address",
          "name": "highestBidder",
          "type": "address"
        },
        {
          "internalType": "uint256",
          "name": "highestBid",
          "type": "uint256"
        },
        {
          "internalType": "string",
          "name": "domainName",
          "type": "string"
        }
      ],
      "stateMutability": "view",
      "type": "function"
    },
    {
      "inputs": [
        {
          "internalType": "uint256",
          "name": "_tokenId",
          "type": "uint256"
        },
        {
          "internalType": "string",
          "name": "_domainName",
          "type": "string"
        },
        {
          "internalType": "uint256",
          "name": "_durationSeconds",
          "type": "uint256"
        },
        {
          "internalType": "uint256",
          "name": "_reservePrice",
          "type": "uint256"
        },
        {
          "internalType": "uint256",
          "name": "_minIncrement",
          "type": "uint256"
        }
      ],
      "name": "createAuction",
      "outputs": [
        {
          "internalType": "uint256",
          "name": "",
          "type": "uint256"
        }
      ],
      "stateMutability": "nonpayable",
      "type": "function"
    },
    {
      "inputs": [
        {
          "internalType": "bytes32",
          "name": "",
          "type": "bytes32"
        },
        {
          "internalType": "uint256",
          "name": "",
          "type": "uint256"
        }
      ],
      "name": "domainToAuctionIds",
      "outputs": [
        {
          "internalType": "uint256",
          "name": "",
          "type": "uint256"
        }
      ],
      "stateMutability": "view",
      "type": "function"
    },
    {
      "inputs": [
        {
          "internalType": "string",
          "name": "_domainName",
          "type": "string"
        }
      ],
      "name": "getAuctionsByDomainName",
      "outputs": [
        {
          "internalType": "uint256[]",
          "name": "",
          "type": "uint256[]"
        }
      ],
      "stateMutability": "view",
      "type": "function"
    },
    {
      "inputs": [
        {
          "internalType": "uint256",
          "name": "_tokenId",
          "type": "uint256"
        }
      ],
      "name": "getAuctionsByTokenId",
      "outputs": [
        {
          "internalType": "uint256[]",
          "name": "",
          "type": "uint256[]"
        }
      ],
      "stateMutability": "view",
      "type": "function"
    },
    {
      "inputs": [
        {
          "internalType": "string",
          "name": "_domainName",
          "type": "string"
        }
      ],
      "name": "getLatestAuctionIdByDomainName",
      "outputs": [
        {
          "internalType": "bool",
          "name": "found",
          "type": "bool"
        },
        {
          "internalType": "uint256",
          "name": "auctionId",
          "type": "uint256"
        }
      ],
      "stateMutability": "view",
      "type": "function"
    },
    {
      "inputs": [
        {
          "internalType": "uint256",
          "name": "_tokenId",
          "type": "uint256"
        }
      ],
      "name": "getLatestAuctionIdByTokenId",
      "outputs": [
        {
          "internalType": "bool",
          "name": "found",
          "type": "bool"
        },
        {
          "internalType": "uint256",
          "name": "auctionId",
          "type": "uint256"
        }
      ],
      "stateMutability": "view",
      "type": "function"
    },
    {
      "inputs": [
        {
          "internalType": "uint256",
          "name": "auctionId",
          "type": "uint256"
        },
        {
          "internalType": "address",
          "name": "user",
          "type": "address"
        }
      ],
      "name": "getUserBidAmount",
      "outputs": [
        {
          "internalType": "uint256",
          "name": "",
          "type": "uint256"
        }
      ],
      "stateMutability": "view",
      "type": "function"
    },
    {
      "inputs": [],
      "name": "nextAuctionId",
      "outputs": [
        {
          "internalType": "uint256",
          "name": "",
          "type": "uint256"
        }
      ],
      "stateMutability": "view",
      "type": "function"
    },
    {
      "inputs": [
        {
          "internalType": "address",
          "name": "",
          "type": "address"
        }
      ],
      "name": "pendingWithdrawals",
      "outputs": [
        {
          "internalType": "uint256",
          "name": "",
          "type": "uint256"
        }
      ],
      "stateMutability": "view",
      "type": "function"
    },
    {
      "inputs": [
        {
          "internalType": "uint256",
          "name": "auctionId",
          "type": "uint256"
        },
        {
          "internalType": "uint256",
          "name": "amount",
          "type": "uint256"
        }
      ],
      "name": "placeBid",
      "outputs": [],
      "stateMutability": "payable",
      "type": "function"
    },
    {
      "inputs": [
        {
          "internalType": "uint256",
          "name": "auctionId",
          "type": "uint256"
        }
      ],
      "name": "settleAuction",
      "outputs": [],
      "stateMutability": "nonpayable",
      "type": "function"
    },
    {
      "inputs": [
        {
          "internalType": "uint256",
          "name": "",
          "type": "uint256"
        },
        {
          "internalType": "uint256",
          "name": "",
          "type": "uint256"
        }
      ],
      "name": "tokenIdToAuctionIds",
      "outputs": [
        {
          "internalType": "uint256",
          "name": "",
          "type": "uint256"
        }
      ],
      "stateMutability": "view",
      "type": "function"
    },
    {
      "inputs": [
        {
          "internalType": "uint256",
          "name": "",
          "type": "uint256"
        },
        {
          "internalType": "address",
          "name": "",
          "type": "address"
        }
      ],
      "name": "userBids",
      "outputs": [
        {
          "internalType": "uint256",
          "name": "",
          "type": "uint256"
        }
      ],
      "stateMutability": "view",
      "type": "function"
    },
    {
      "inputs": [],
      "name": "withdraw",
      "outputs": [],
      "stateMutability": "nonpayable",
      "type": "function"
    }
  ],
  "bytecode": "0x60806040526001805534801561001457600080fd5b506040516125b93803806125b9833981810160405281019061003691906100e8565b600160008190555080600760006101000a81548173ffffffffffffffffffffffffffffffffffffffff021916908373ffffffffffffffffffffffffffffffffffffffff16021790555050610115565b600080fd5b600073ffffffffffffffffffffffffffffffffffffffff82169050919050565b60006100b58261008a565b9050919050565b6100c5816100aa565b81146100d057600080fd5b50565b6000815190506100e2816100bc565b92915050565b6000602082840312156100fe576100fd610085565b5b600061010c848285016100d3565b91505092915050565b612495806101246000396000f3fe6080604052600436106100e85760003560e01c806357c90de51161008a578063c0f5e27411610059578063c0f5e2741461033c578063dffa970a14610379578063f3f43703146103b6578063fc528482146103f3576100e8565b806357c90de51461026857806391dad307146102845780639f68fd70146102c1578063b946eb4d146102fe576100e8565b80632b76708b116100c65780632b76708b146101a55780632e993611146101e25780633ccfd60b1461020b578063571a26a014610222576100e8565b8063098b1895146100ed5780631144e58b1461012b5780631908eb2914610168575b600080fd5b3480156100f957600080fd5b50610114600480360381019061010f919061141d565b61041e565b604051610122929190611474565b60405180910390f35b34801561013757600080fd5b50610152600480360381019061014d919061149d565b61049a565b60405161015f91906114dd565b60405180910390f35b34801561017457600080fd5b5061018f600480360381019061018a919061141d565b6104cb565b60405161019c91906115b6565b60405180910390f35b3480156101b157600080fd5b506101cc60048036038101906101c79190611636565b610536565b6040516101d991906114dd565b60405180910390f35b3480156101ee57600080fd5b506102096004803603810190610204919061141d565b61055b565b005b34801561021757600080fd5b50610220610816565b005b34801561022e57600080fd5b506102496004803603810190610244919061141d565b6109f0565b60405161025f9a99989796959493929190611715565b60405180910390f35b610282600480360381019061027d919061149d565b610b19565b005b34801561029057600080fd5b506102ab60048036038101906102a69190611636565b610d3c565b6040516102b891906114dd565b60405180910390f35b3480156102cd57600080fd5b506102e860048036038101906102e391906117ee565b610d97565b6040516102f591906114dd565b60405180910390f35b34801561030a57600080fd5b5061032560048036038101906103209190611893565b610dc8565b604051610333929190611474565b60405180910390f35b34801561034857600080fd5b50610363600480360381019061035e91906118e0565b610e64565b60405161037091906114dd565b60405180910390f35b34801561038557600080fd5b506103a0600480360381019061039b9190611893565b6112ec565b6040516103ad91906115b6565b60405180910390f35b3480156103c257600080fd5b506103dd60048036038101906103d8919061197a565b61136f565b6040516103ea91906114dd565b60405180910390f35b3480156103ff57600080fd5b50610408611387565b60405161041591906114dd565b60405180910390f35b60008060006004600085815260200190815260200160002080549050905060008103610451576000809250925050610495565b60016004600086815260200190815260200160002060018361047391906119d6565b8154811061048457610483611a0a565b5b906000526020600020015492509250505b915091565b600460205281600052604060002081815481106104b657600080fd5b90600052602060002001600091509150505481565b60606004600083815260200190815260200160002080548060200260200160405190810160405280929190818152602001828054801561052a57602002820191906000526020600020905b815481526020019060010190808311610516575b50505050509050919050565b6005602052816000526040600020602052806000526040600020600091509150505481565b61056361138d565b600060026000838152602001908152602001600020905080600301544210156105c1576040517f08c379a00000000000000000000000000000000000000000000000000000000081526004016105b890611a85565b60405180910390fd5b8060060160009054906101000a900460ff1615610613576040517f08c379a000000000000000000000000000000000000000000000000000000000815260040161060a90611af1565b60405180910390fd5b60018160060160006101000a81548160ff021916908315150217905550600073ffffffffffffffffffffffffffffffffffffffff168160060160019054906101000a900473ffffffffffffffffffffffffffffffffffffffff1673ffffffffffffffffffffffffffffffffffffffff160361068e575061080b565b60008160010160009054906101000a900473ffffffffffffffffffffffffffffffffffffffff1673ffffffffffffffffffffffffffffffffffffffff1682600701546040516106dc90611b42565b60006040518083038185875af1925050503d8060008114610719576040519150601f19603f3d011682016040523d82523d6000602084013e61071e565b606091505b50509050806107a6578160070154600360008460010160009054906101000a900473ffffffffffffffffffffffffffffffffffffffff1673ffffffffffffffffffffffffffffffffffffffff1673ffffffffffffffffffffffffffffffffffffffff168152602001908152602001600020600082825461079e9190611b57565b925050819055505b827fc9f72b276a388619c6d185d146697036241880c36654b1a3ffdad07c24038d998360060160019054906101000a900473ffffffffffffffffffffffffffffffffffffffff168460070154604051610800929190611b8b565b60405180910390a250505b6108136113d3565b50565b61081e61138d565b6000600360003373ffffffffffffffffffffffffffffffffffffffff1673ffffffffffffffffffffffffffffffffffffffff168152602001908152602001600020549050600081116108a5576040517f08c379a000000000000000000000000000000000000000000000000000000000815260040161089c90611c00565b60405180910390fd5b6000600360003373ffffffffffffffffffffffffffffffffffffffff1673ffffffffffffffffffffffffffffffffffffffff1681526020019081526020016000208190555060003373ffffffffffffffffffffffffffffffffffffffff168260405161091090611b42565b60006040518083038185875af1925050503d806000811461094d576040519150601f19603f3d011682016040523d82523d6000602084013e610952565b606091505b5050905080610996576040517f08c379a000000000000000000000000000000000000000000000000000000000815260040161098d90611c6c565b60405180910390fd5b3373ffffffffffffffffffffffffffffffffffffffff167f7fcf532c15f0a6db0bd6d0e038bea71d30d808c7d98cb3bf7268a95bf5081b65836040516109dc91906114dd565b60405180910390a250506109ee6113d3565b565b60026020528060005260406000206000915090508060000154908060010160009054906101000a900473ffffffffffffffffffffffffffffffffffffffff16908060020154908060030154908060040154908060050154908060060160009054906101000a900460ff16908060060160019054906101000a900473ffffffffffffffffffffffffffffffffffffffff1690806007015490806008018054610a9690611cbb565b80601f0160208091040260200160405190810160405280929190818152602001828054610ac290611cbb565b8015610b0f5780601f10610ae457610100808354040283529160200191610b0f565b820191906000526020600020905b815481529060010190602001808311610af257829003601f168201915b505050505090508a565b610b2161138d565b600060026000848152602001908152602001600020905080600201544210158015610b4f5750806003015442105b610b8e576040517f08c379a0000000000000000000000000000000000000000000000000000000008152600401610b8590611d38565b60405180910390fd5b66038d7ea4c680003414610bd7576040517f08c379a0000000000000000000000000000000000000000000000000000000008152600401610bce90611da4565b60405180910390fd5b600080826007015414610bfd5781600501548260070154610bf89190611b57565b610c03565b81600401545b905080831015610c48576040517f08c379a0000000000000000000000000000000000000000000000000000000008152600401610c3f90611e10565b60405180910390fd5b826005600086815260200190815260200160002060003373ffffffffffffffffffffffffffffffffffffffff1673ffffffffffffffffffffffffffffffffffffffff16815260200190815260200160002081905550828260070181905550338260060160016101000a81548173ffffffffffffffffffffffffffffffffffffffff021916908373ffffffffffffffffffffffffffffffffffffffff160217905550837f614ce751ca60c62cb060dd800e5f7e47a408526a734abd27b9af985b8131049f8360000154846008013334604051610d269493929190611ec9565b60405180910390a25050610d386113d3565b5050565b60006005600084815260200190815260200160002060008373ffffffffffffffffffffffffffffffffffffffff1673ffffffffffffffffffffffffffffffffffffffff16815260200190815260200160002054905092915050565b60066020528160005260406000208181548110610db357600080fd5b90600052602060002001600091509150505481565b60008060008484604051610ddd929190611f49565b6040518091039020905060006006600083815260200190815260200160002080549050905060008103610e1857600080935093505050610e5d565b600160066000848152602001908152602001600020600183610e3a91906119d6565b81548110610e4b57610e4a611a0a565b5b90600052602060002001549350935050505b9250929050565b6000610e6e61138d565b60008411610eb1576040517f08c379a0000000000000000000000000000000000000000000000000000000008152600401610ea890611fae565b60405180910390fd5b60008211610ef4576040517f08c379a0000000000000000000000000000000000000000000000000000000008152600401610eeb9061201a565b60405180910390fd5b3373ffffffffffffffffffffffffffffffffffffffff16600760009054906101000a900473ffffffffffffffffffffffffffffffffffffffff1673ffffffffffffffffffffffffffffffffffffffff16636352211e896040518263ffffffff1660e01b8152600401610f6691906114dd565b602060405180830381865afa158015610f83573d6000803e3d6000fd5b505050506040513d601f19601f82011682018060405250810190610fa7919061204f565b73ffffffffffffffffffffffffffffffffffffffff1614610ffd576040517f08c379a0000000000000000000000000000000000000000000000000000000008152600401610ff4906120c8565b60405180910390fd5b600060016000815480929190611012906120e8565b91905055905060004290506040518061014001604052808a81526020013373ffffffffffffffffffffffffffffffffffffffff168152602001828152602001878361105d9190611b57565b8152602001868152602001858152602001600015158152602001600073ffffffffffffffffffffffffffffffffffffffff1681526020016000815260200189898080601f016020809104026020016040519081016040528093929190818152602001838380828437600081840152601f19601f82011690508083019250505050505050815250600260008481526020019081526020016000206000820151816000015560208201518160010160006101000a81548173ffffffffffffffffffffffffffffffffffffffff021916908373ffffffffffffffffffffffffffffffffffffffff16021790555060408201518160020155606082015181600301556080820151816004015560a0820151816005015560c08201518160060160006101000a81548160ff02191690831515021790555060e08201518160060160016101000a81548173ffffffffffffffffffffffffffffffffffffffff021916908373ffffffffffffffffffffffffffffffffffffffff16021790555061010082015181600701556101208201518160080190816111f791906122f6565b50905050600460008a8152602001908152602001600020829080600181540180825580915050600190039060005260206000200160009091909190915055600660008989604051611249929190611f49565b60405180910390208152602001908152602001600020829080600181540180825580915050600190039060005260206000200160009091909190915055817fd7ab6cbbd18cddb6ed10c3b6b9f7161c759f60d18ea5c2f6d3d94365efa990b9338b8b8b868c886112b99190611b57565b8c6040516112cd97969594939291906123f5565b60405180910390a281925050506112e26113d3565b9695505050505050565b6060600660008484604051611302929190611f49565b6040518091039020815260200190815260200160002080548060200260200160405190810160405280929190818152602001828054801561136257602002820191906000526020600020905b81548152602001906001019080831161134e575b5050505050905092915050565b60036020528060005260406000206000915090505481565b60015481565b6002600054036113c9576040517f3ee5aeb500000000000000000000000000000000000000000000000000000000815260040160405180910390fd5b6002600081905550565b6001600081905550565b600080fd5b600080fd5b6000819050919050565b6113fa816113e7565b811461140557600080fd5b50565b600081359050611417816113f1565b92915050565b600060208284031215611433576114326113dd565b5b600061144184828501611408565b91505092915050565b60008115159050919050565b61145f8161144a565b82525050565b61146e816113e7565b82525050565b60006040820190506114896000830185611456565b6114966020830184611465565b9392505050565b600080604083850312156114b4576114b36113dd565b5b60006114c285828601611408565b92505060206114d385828601611408565b9150509250929050565b60006020820190506114f26000830184611465565b92915050565b600081519050919050565b600082825260208201905092915050565b6000819050602082019050919050565b61152d816113e7565b82525050565b600061153f8383611524565b60208301905092915050565b6000602082019050919050565b6000611563826114f8565b61156d8185611503565b935061157883611514565b8060005b838110156115a95781516115908882611533565b975061159b8361154b565b92505060018101905061157c565b5085935050505092915050565b600060208201905081810360008301526115d08184611558565b905092915050565b600073ffffffffffffffffffffffffffffffffffffffff82169050919050565b6000611603826115d8565b9050919050565b611613816115f8565b811461161e57600080fd5b50565b6000813590506116308161160a565b92915050565b6000806040838503121561164d5761164c6113dd565b5b600061165b85828601611408565b925050602061166c85828601611621565b9150509250929050565b61167f816115f8565b82525050565b600081519050919050565b600082825260208201905092915050565b60005b838110156116bf5780820151818401526020810190506116a4565b60008484015250505050565b6000601f19601f8301169050919050565b60006116e782611685565b6116f18185611690565b93506117018185602086016116a1565b61170a816116cb565b840191505092915050565b60006101408201905061172b600083018d611465565b611738602083018c611676565b611745604083018b611465565b611752606083018a611465565b61175f6080830189611465565b61176c60a0830188611465565b61177960c0830187611456565b61178660e0830186611676565b611794610100830185611465565b8181036101208301526117a781846116dc565b90509b9a5050505050505050505050565b6000819050919050565b6117cb816117b8565b81146117d657600080fd5b50565b6000813590506117e8816117c2565b92915050565b60008060408385031215611805576118046113dd565b5b6000611813858286016117d9565b925050602061182485828601611408565b9150509250929050565b600080fd5b600080fd5b600080fd5b60008083601f8401126118535761185261182e565b5b8235905067ffffffffffffffff8111156118705761186f611833565b5b60208301915083600182028301111561188c5761188b611838565b5b9250929050565b600080602083850312156118aa576118a96113dd565b5b600083013567ffffffffffffffff8111156118c8576118c76113e2565b5b6118d48582860161183d565b92509250509250929050565b60008060008060008060a087890312156118fd576118fc6113dd565b5b600061190b89828a01611408565b965050602087013567ffffffffffffffff81111561192c5761192b6113e2565b5b61193889828a0161183d565b9550955050604061194b89828a01611408565b935050606061195c89828a01611408565b925050608061196d89828a01611408565b9150509295509295509295565b6000602082840312156119905761198f6113dd565b5b600061199e84828501611621565b91505092915050565b7f4e487b7100000000000000000000000000000000000000000000000000000000600052601160045260246000fd5b60006119e1826113e7565b91506119ec836113e7565b9250828203905081811115611a0457611a036119a7565b5b92915050565b7f4e487b7100000000000000000000000000000000000000000000000000000000600052603260045260246000fd5b7f6e6f7420656e6465640000000000000000000000000000000000000000000000600082015250565b6000611a6f600983611690565b9150611a7a82611a39565b602082019050919050565b60006020820190508181036000830152611a9e81611a62565b9050919050565b7f616c726561647920736574746c65640000000000000000000000000000000000600082015250565b6000611adb600f83611690565b9150611ae682611aa5565b602082019050919050565b60006020820190508181036000830152611b0a81611ace565b9050919050565b600081905092915050565b50565b6000611b2c600083611b11565b9150611b3782611b1c565b600082019050919050565b6000611b4d82611b1f565b9150819050919050565b6000611b62826113e7565b9150611b6d836113e7565b9250828201905080821115611b8557611b846119a7565b5b92915050565b6000604082019050611ba06000830185611676565b611bad6020830184611465565b9392505050565b7f6e6f2066756e6473000000000000000000000000000000000000000000000000600082015250565b6000611bea600883611690565b9150611bf582611bb4565b602082019050919050565b60006020820190508181036000830152611c1981611bdd565b9050919050565b7f7769746864726177206661696c65640000000000000000000000000000000000600082015250565b6000611c56600f83611690565b9150611c6182611c20565b602082019050919050565b60006020820190508181036000830152611c8581611c49565b9050919050565b7f4e487b7100000000000000000000000000000000000000000000000000000000600052602260045260246000fd5b60006002820490506001821680611cd357607f821691505b602082108103611ce657611ce5611c8c565b5b50919050565b7f61756374696f6e206e6f74206163746976650000000000000000000000000000600082015250565b6000611d22601283611690565b9150611d2d82611cec565b602082019050919050565b60006020820190508181036000830152611d5181611d15565b9050919050565b7f6269642072617465206d75737420626520302e30303120455448000000000000600082015250565b6000611d8e601a83611690565b9150611d9982611d58565b602082019050919050565b60006020820190508181036000830152611dbd81611d81565b9050919050565b7f6269642076616c7565206d757374206265206d6f726500000000000000000000600082015250565b6000611dfa601683611690565b9150611e0582611dc4565b602082019050919050565b60006020820190508181036000830152611e2981611ded565b9050919050565b60008190508160005260206000209050919050565b60008154611e5281611cbb565b611e5c8186611690565b94506001821660008114611e775760018114611e8d57611ec0565b60ff198316865281151560200286019350611ec0565b611e9685611e30565b60005b83811015611eb857815481890152600182019150602081019050611e99565b808801955050505b50505092915050565b6000608082019050611ede6000830187611465565b8181036020830152611ef08186611e45565b9050611eff6040830185611676565b611f0c6060830184611465565b95945050505050565b82818337600083830152505050565b6000611f308385611b11565b9350611f3d838584611f15565b82840190509392505050565b6000611f56828486611f24565b91508190509392505050565b7f6475726174696f6e203e20300000000000000000000000000000000000000000600082015250565b6000611f98600c83611690565b9150611fa382611f62565b602082019050919050565b60006020820190508181036000830152611fc781611f8b565b9050919050565b7f6d696e496e6372656d656e74203e203000000000000000000000000000000000600082015250565b6000612004601083611690565b915061200f82611fce565b602082019050919050565b6000602082019050818103600083015261203381611ff7565b9050919050565b6000815190506120498161160a565b92915050565b600060208284031215612065576120646113dd565b5b60006120738482850161203a565b91505092915050565b7f6e6f74204e4654206f776e657200000000000000000000000000000000000000600082015250565b60006120b2600d83611690565b91506120bd8261207c565b602082019050919050565b600060208201905081810360008301526120e1816120a5565b9050919050565b60006120f3826113e7565b91507fffffffffffffffffffffffffffffffffffffffffffffffffffffffffffffffff8203612125576121246119a7565b5b600182019050919050565b7f4e487b7100000000000000000000000000000000000000000000000000000000600052604160045260246000fd5b60006020601f8301049050919050565b600082821b905092915050565b6000600883026121ac7fffffffffffffffffffffffffffffffffffffffffffffffffffffffffffffffff8261216f565b6121b6868361216f565b95508019841693508086168417925050509392505050565b6000819050919050565b60006121f36121ee6121e9846113e7565b6121ce565b6113e7565b9050919050565b6000819050919050565b61220d836121d8565b612221612219826121fa565b84845461217c565b825550505050565b600090565b612236612229565b612241818484612204565b505050565b5b818110156122655761225a60008261222e565b600181019050612247565b5050565b601f8211156122aa5761227b81611e30565b6122848461215f565b81016020851015612293578190505b6122a761229f8561215f565b830182612246565b50505b505050565b600082821c905092915050565b60006122cd600019846008026122af565b1980831691505092915050565b60006122e683836122bc565b9150826002028217905092915050565b6122ff82611685565b67ffffffffffffffff81111561231857612317612130565b5b6123228254611cbb565b61232d828285612269565b600060209050601f831160018114612360576000841561234e578287015190505b61235885826122da565b8655506123c0565b601f19841661236e86611e30565b60005b8281101561239657848901518255600182019150602085019450602081019050612371565b868310156123b357848901516123af601f8916826122bc565b8355505b6001600288020188555050505b505050505050565b60006123d48385611690565b93506123e1838584611f15565b6123ea836116cb565b840190509392505050565b600060c08201905061240a600083018a611676565b6124176020830189611465565b818103604083015261242a8187896123c8565b90506124396060830186611465565b6124466080830185611465565b61245360a0830184611465565b9897505050505050505056fea26469706673582212208d0adc8f6f0c1154b38fb76a9a55ab6bc931ed7c8ec8b708b23ec569874b171c64736f6c634300081c0033",
  "linkReferences": {},
  "deployedLinkReferences": {}
}